:100000000C9446000C946F000C946F000C946F00DD
:100010000C946F000C946F000C94EC160C946F0011
:100020000C946F000C946F000C946F000C945D1E88
:100030000C946F000C946F000C94B01D0C946F0026
:100040000C946F000C946F000C946F000C946F0074
:100050000C946F000C946F000C946F000C947F1E36
:100060000C946F000C946F001C18CC179A17831710
:1000700078175817B4181B20BF1EBF1E1820152054
:1000800011200D200920F11FC51F9F1F11241FBE25
:10009000CFEFD8E0DEBFCDBF14BE0FB6F894A89561
:1000A00080916000886180936000109260000FBEB4
:1000B00013E0A0E0B1E0E8E8FAE402C005900D9298
:1000C000A03CB107D9F727E0A0ECB3E001C01D9236
:1000D000AA35B207E1F70E94E2210C9442250C9464
:1000E000000082E196E0089581E090E090930204A0
:1000F000809301040895CF93DF93209103043091FE
:100100000404232B81F5EC01CB010E94DE1A90E060
:10011000909306018093050188818093F20689817E
:100120008093F3068A818093F4068B818093F50691
:100130008C818093F6068D818093F7068E81809363
:10014000F8068F818093F90688858093FA0689E006
:1001500090E09093DC038093DB0381E090E0909348
:10016000040480930304DF91CF9108950F931F93AC
:10017000CF930E94571A0E94BE1A0E94571A90E00D
:100180000E94C62402E116E0D80119961C920E9432
:10019000571AC82F0E94571A2C2F30E0322F2227CF
:1001A000F901E82BCF010E94C6248EEF91E0EBE02D
:1001B000F4E0DF019C011D9221503040E1F70E94E4
:1001C000C1246DEF70E00E94FF210196909300041E
:1001D0008093FF039091ED03E9E0F6E080831182C4
:1001E000128213821482158216821782908789E008
:1001F000D80101900D928A95E1F7C8010E94A620CE
:10020000D8011B969C938E931A9780911E0790910C
:100210001F07A0912007B09121078093F4039093CA
:10022000F503A093F603B093F703CF911F910F91BD
:10023000089514161506A4F4FB012081318182175C
:10024000930789F03296440F551F640F751F05C040
:10025000219131912817390731F0E617F707C1F7D7
:1002600080E090E0089581E090E00895141615066E
:10027000ACF490E0FB01208131812817390789F027
:100280003296440F551F640F751F05C0219131919F
:100290002817390731F0E617F707C1F780E090E03B
:1002A000089581E090E00895442371F0FB0190816E
:1002B000891769F03196640F711D03C091919817E9
:1002C00031F0E617F707D1F780E090E0089581E07C
:1002D00090E00895161617062CF4AB0160E070E06C
:1002E0000C94D1240895161617063CF4AB01440F64
:1002F000551F60E070E00C94D12408958F92AF9266
:10030000CF92EF920F93CF93DF93CDB7DEB7E9E0B3
:10031000F6E080836183428323830483E582C6827F
:10032000A782808689E0A2E1B6E001900D928A95CD
:10033000E1F782E196E00E94A62090931D0680934B
:100340001C06DF91CF910F91EF90CF90AF908F90DF
:1003500008958F929F92AF92BF92CF92DF92EF92C9
:10036000FF920F931F93CF93DF9380911E0790917D
:100370001F07A0912007B09121078C329140A10561
:10038000B10510F580911E0790911F07A0912007DD
:10039000B09121074091FF0350910004052E000CFD
:1003A000660B770B0091F4031091F5032091F6038F
:1003B0003091F703801B910BA20BB30B4817590721
:1003C0006A077B0708F416C3809103049091040424
:1003D000019769F0DF91CF911F910F91FF90EF90FE
:1003E000DF90CF90BF90AF909F908F9008956091D5
:1003F000DB037091DC0363327105F4F42091F206A3
:100400008091C3039091C403820F911D2091050137
:1004100030910601820F931F9093C4038093C3030E
:100420006F5F7F4F7093DC036093DB030E94FF21BB
:100430007093C6036093C5039091FA068091ED0313
:10044000891738F59093ED0340911E0750911F07CF
:1004500060912007709121074093F4035093F503B6
:100460006093F6037093F70340911E0750911F07A6
:1004700060912007709121074093F0035093F1039E
:100480006093F2037093F303993011F40C941E0FF0
:10049000892F8823F9F0813009F481C4823009F46E
:1004A000E9C3833009F4CDC3843009F474C38530C3
:1004B00009F4B7C2863009F4C2C599EF980F92309B
:1004C00008F489C4893009F426C6109204041092F5
:1004D000030480CF80911E0790911F07A0912007F1
:1004E000B0912107893C9105A105B10578F0809173
:1004F0001E0790911F07A0912007B09121078C3211
:100500009140A105B10510F40C94C00AC091F50604
:100510008C2F90E02091FF03309100048217930705
:1005200009F4F9C480911E0790911F07A09120073C
:10053000B09121078D329140A105B10508F497C013
:1005400080911E0790911F07A0912007B09121076D
:1005500080329340A105B10508F089C08091F20670
:10056000482F50E0FA01EE0FFF1FE55FFB4F20819F
:1005700031812115310511F00C94C10F8091F406E1
:1005800090E0918380836091EE037091EF031616E3
:10059000170614F00C94D114A0911E06B0911F06FA
:1005A000A417B50711F40C94FE0CE0E2F6E0EB01A1
:1005B000CC0FDD1F9E01225E394F07C081919191C2
:1005C0008417950711F40C94FE0CE217F307B1F7AA
:1005D0008091FF03909100048417950711F40C9407
:1005E000FE0CC25ED94F598348836F5F7F4F709373
:1005F000EF036093EE034091F3061616170614F00E
:100600000C94CE14A0911E06B0911F0650E04A171C
:100610005B07D9F0E0E2F6E080E090E005C02191D0
:1006200031912417350789F0019686179707BCF397
:10063000FB01EE0FFF1FE25EF94F518340836F5FB6
:100640007F4F7093EF036093EE03809105019091CB
:100650000601813291055CF0209103013091040183
:100660008217930724F490930401809303018091EF
:100670001E0790911F07A0912007B091210781329A
:100680009340A105B10508F481C080911E079091A7
:100690001F07A0912007B091210780349640A10543
:1006A000B10508F073C0C0910301D0910401CF36A9
:1006B000D10544F08EE690E090930401809303010D
:1006C000CEE6D0E00091E8031091E903F090F20645
:1006D00010161106DCF44F2D50E08091E206909147
:1006E000E3068417950709F451C0E4EEF6E098019B
:1006F000220F331F2E51394F06C0819191918417DB
:10070000950709F443C02E173F07B9F7C0900501BC
:10071000D0900601B6010D2C000C880B990B0E949D
:1007200058234B015C01BE01DD0F880B990B0E9421
:10073000582320E030E040EC5FE30E94082420E0F2
:1007400030E040E251E40E943D229B01AC01C50132
:10075000B4010E94A92287FF19C071E2C716D10413
:10076000ACF0C801880F991FFC01EE51F94F2F2DF5
:1007700030E031832083FC01EE52F94FD182C082F8
:100780000F5F1F4F1093E9030093E80380911E074A
:1007900090911F07A0912007B0912107843A9640BD
:1007A000A105B10508F043C080911E0790911F0775
:1007B000A0912007B091210781329340A105B10596
:1007C000B0F18091E8039091E9038830910511F42C
:1007D0000C94C5138530910511F40C94BC1383302F
:1007E000910511F40C948F138930910514F00C9439
:1007F00097118730910511F40C94B313863091054D
:1008000011F40C94AA138430910511F40C94A113E3
:100810008130910511F40C9498138230910511F4F4
:100820000C947213892B19F485E10E94391E809172
:100830001E0790911F07A0912007B0912107893EC4
:100840009340A105B10508F461C080911E07909105
:100850001F07A0912007B091210780349640A10581
:10086000B10508F053C08091FC03882311F40C9467
:100870004F116091E8037091E903A091F2061616FA
:100880001706CCF44A2F50E08091E2069091E306DF
:1008900084179507E1F0E4EEF6E09B01220F331F89
:1008A0002E51394F05C0819191918417950779F0A8
:1008B0002E173F07C1F78091F30690E02091FF03C8
:1008C000309100048217930711F40C944C1300919B
:1008D0001E0710911F07209120073091210780915A
:1008E000F4039091F503A091F603B091F7034E96AF
:1008F000A11DB11D80179107A207B30710F40C9436
:10090000061184E68093F9031092F80380911E0784
:1009100090911F07A0912007B0912107833796403F
:10092000A105B10578F080911E0790911F07A09155
:100930002007B091210788309740A105B10510F438
:100940000C94BB0E80911E0790911F07A091200769
:10095000B09121078B339740A105B105D0F12091CB
:10096000E8033091E9038091F90390E028173907F3
:100970000CF4CAC58091F80390E0281739070CF0F1
:100980001DC781E08093FA038091ED031092090660
:1009900010920A0610920B0610920C0610920D0689
:1009A00010920E0610920F061092100680931106F8
:1009B00089E0E9E0F6E0A2E1B6E001900D928A95C7
:1009C000E1F782E196E00E94A62090931D068093B5
:1009D0001C0680911E0790911F07A0912007B091DF
:1009E00021078F399740A105B10508F0C5C1809155
:1009F000ED0351CD8CE00E94391EE6CC85E080935A
:100A0000ED0380911E0790911F07A0912007B091E0
:100A100021078093F4039093F503A093F603B0931A
:100A2000F70340911E0750911F07609120077091B6
:100A300021078091F0039091F103A091F203B0910E
:100A4000F3038896A11DB11D84179507A607B70764
:100A500000F580911E0790911F07A0912007B0918B
:100A600021078093F0039093F103A093F203B093D6
:100A7000F3038091DE039091DF0301969093DF03EF
:100A80008093DE032091DA0330E08217930709F4A4
:100A900079C67091FA03723011F40C94BF0D209155
:100AA000F6062111E8C46091F30661110C94B20FAF
:100AB0008091C2039091C1034091F406C091F50664
:100AC000442331F081110C94CE134093C203842F40
:100AD0003091C0035C2FCC2359F0851749F0911158
:100AE00007C0581710F40C94B4115093C103952FFC
:100AF00021116DC64423B9F04817A9F0491799F0A0
:100B0000311111C0481710F40C94E7134093C0033F
:100B1000342F831740F4391730F49093C003409377
:100B2000C103392F942F5523B9F08517A9F09517D4
:100B300099F0311111C0581710F40C94D11350933F
:100B4000C003352F831740F4391730F49093C00356
:100B50005093C103392F952F222309F4A5C42817D8
:100B600009F4A2C4291709F49FC431119DC42817A0
:100B700010F40C94DC132093C003322F831708F079
:100B800093C4391708F090C49093C0032093C10315
:100B9000392F922F89C49091FC03992309F4EFC651
:100BA0008091E2039091E303892B29F48091FA0369
:100BB000823009F4A1C58091F4039091F503A091CE
:100BC000F603B091F70340911E0750911F07609103
:100BD0002007709121078C019D0106501F4F2F4F58
:100BE0003F4F041715072607370708F454C64091EE
:100BF0001E0750911F0760912007709121078057B1
:100C00009E4FAF4FBF4F84179507A607B70708F44D
:100C1000F5CE8091ED034BCC83E08093ED031092F1
:100C2000EA0380911E0790911F07A0912007B091C1
:100C300021078093F4039093F503A093F603B093F8
:100C4000F7031092FC038091E2039091E303009775
:100C500009F0ACC32091FA03213009F4A7C3892B12
:100C600009F009C38091FA03813009F404C380912B
:100C7000ED031ACC9091FA0391112EC02091F30646
:100C8000213009F4EBC42091E4039091E603309104
:100C9000FF033093090690930A0620930B061092E7
:100CA0000C0610920D0610920E0610920F0610926E
:100CB00010068093110689E0E9E0F6E0A2E1B6E0D3
:100CC00001900D928A95E1F782E196E00E94A620BC
:100CD00090931D0680931C068091E2039091E3039C
:100CE000019709F4A8C78091F4039091F503A091AE
:100CF000F603B091F70340911E0750911F076091D2
:100D00002007709121078C019D010A561F4F2F4F1C
:100D10003F4F041715072607370728F42091FA03D9
:100D2000213009F4ADC440911E0750911F07609116
:100D30002007709121078C019D0100571E4F2F4FF6
:100D40003F4F041715072607370708F4E4C54091FD
:100D50001E0750911F0760912007709121078C504A
:100D60009E4FAF4FBF4F84179507A607B70708F4EC
:100D700053CF8091ED0395CB81E08093ED0380917B
:100D80001E0790911F07A0912007B0912107809323
:100D9000F4039093F503A093F603B093F7038091C7
:100DA000F2068093EA039091FA03923009F463C645
:100DB000811128C680911E0790911F07A0912007DE
:100DC000B09121078091CE03813011F40C94A011D1
:100DD0008091ED0363CB2091E2033091E303232B59
:100DE00031F021E030E03093E5032093E40390916B
:100DF000FA0391114BC04091E8035091E9036091CF
:100E0000F20670E014161506D4F42091E206309133
:100E1000E3066217730711F40C942B0FE4EEF6E06F
:100E2000440F551F4E51594F07C021913191621700
:100E3000730711F40C942B0FE417F507B1F78091A9
:100E4000D4038823E9F02091D3032223C9F04091F1
:100E5000D2034423A9F06091E6037091E703672B66
:100E600079F430E0B901680F711DCB01840F911D39
:100E700063E070E00E94FF217093E7036093E60354
:100E80008091D1038111C9C38091ED03873009F4AA
:100E900022C7883009F016CB8091E4039091E503D6
:100EA000009709F4A0C465E070E00E94FF21813042
:100EB000910511F40C94AA118230910511F40C944F
:100EC000AF118330910509F43BC48430910511F4CE
:100ED0000C946D13892B11F40C94A51140911E07ED
:100EE00050911F0760912007709121078091F403B2
:100EF0009091F503A091F603B091F70388539F4FAB
:100F0000AF4FBF4F84179507A607B70708F46FC404
:100F10008091ED03D7CA40911E0750911F07609141
:100F2000200770912107403253406105710508F098
:100F3000F9CA2091EE033091EF03F901EE0FFF1F84
:100F4000E25EF94F918380832F5F3F4F3093EF0331
:100F50002093EE038091C5039091C6030E94C6249E
:100F60000E94C1246DEF70E00E94FF2101969093D2
:100F700000048093FF03CDEFD0E04091EE03509149
:100F8000EF0314161506CCF4992720911E06309114
:100F90001F062817390709F4F9C3E0E2F6E0440F09
:100FA000551F425E594F06C02191319128173907CC
:100FB00009F4ECC34E175F07B9F781E00E94391EB0
:100FC0008091ED039091C7032091FD033091FF03C1
:100FD0003093090610920A0620930B0690930C0694
:100FE00010920D0610920E0610920F061092100627
:100FF0008093110689E0E9E0F6E0A2E1B6E0019015
:101000000D928A95E1F782E196E00E94A6209093E6
:101010001D0680931C0686CA86E08093ED038091AE
:101020001E0790911F07A0912007B0912107809380
:10103000F4039093F503A093F603B093F703809124
:10104000E0039091E1032091E4033091E6034091A5
:10105000FF034093090630930A0620930B06109273
:101060000C0610920D0690930E0680930F061092B8
:10107000100686E08093110689E0E9E0F6E0A2E13F
:10108000B6E001900D928A95E1F782E196E00E9428
:10109000A62090931D0680931C068091F706882356
:1010A00009F4B0C28093E1039091F8069111AFC2A8
:1010B0008DE10E94391E9091E10380910001823000
:1010C00011F00C946B12992349F08091DA038E5F32
:1010D000891B8093E00381110C94731240911E07C9
:1010E00050911F0760912007709121078091F403B0
:1010F0009091F503A091F603B091F70380579E4FAE
:10110000AF4FBF4F84179507A607B70708F4A3C7CB
:101110008091ED03D2C99091E0032091E1033091D9
:10112000DE034091E4035091E6036091FF03609376
:10113000090650930A0640930B0630930C06109252
:101140000D0620930E0690930F06109210068093C2
:101150001106E9E0F6E0A2E1B6E001900D928A9571
:10116000E1F782E196E00E94A62090931D0680930D
:101170001C068091F50690E04091DE035091DF035C
:101180009A012F5F3F4F8217930709F4E1C2209124
:10119000080130910901215031094217530709F420
:1011A000D3C280911E0790911F07A0912007B09194
:1011B00021074091EB035091EC03052E000C660BC8
:1011C000770B480F591F6A1F7B1F8091F003909186
:1011D000F103A091F203B091F3038E579F4FAF4FED
:1011E000BF4F84179507A607B70708F48DC78091EE
:1011F000DE039091DF032091080130910901B901CC
:101200000E94FF218130910509F4A8C78230910521
:1012100009F4D0C78330910511F00C943B12209152
:101220000E0130910F01220F331F121613060CF01E
:10123000BAC24091E6035091E7036091E4037091D4
:10124000E503A091CD03EAEBF1E0220F331F265412
:101250003E4F05C03496E217F30709F4A2C280811D
:10126000918184179507B1F782819381861797073B
:1012700089F7A1E0EFCF8091ED039091DA032091FF
:10128000E4033091E6034091FF0340930906309355
:101290000A0620930B0690930C0610920D061092EE
:1012A0000E0610920F06109210068093110689E028
:1012B000E9E0F6E0A2E1B6E001900D928A95E1F74F
:1012C00082E196E00E94A62090931D0680931C0662
:1012D0008091E2039091E303892B09F4C8CC20911B
:1012E000E8033091E9034091F20650E0121613062C
:1012F0000CF0BDCC8091E2069091E30648175907A7
:1013000079F0E4EEF6E0220F331F2E51394F2E17FD
:101310003F0709F4ACCC8191919148175907B9F76F
:10132000C091F506C33008F4A2CCC093D80384E082
:101330008093ED0340911E0750911F076091200795
:10134000709121074093F4035093F5036093F603E3
:101350007093F7039091DA032091E4033091E60350
:101360004091FF034093090630930A0620930B0631
:1013700090930C0610920D0610920E0610920F0616
:10138000109210068093110689E0E9E0F6E0A2E1F0
:10139000B6E001900D928A95E1F782E196E00E9415
:1013A000A62090931D0680931C0661CC8091DA03E1
:1013B0009091E4032091E6033091FF0330930906F6
:1013C00020930A0690930B0680930C0610920D064C
:1013D00010920E0610920F061092100683E0809372
:1013E000110689E0E9E0F6E0A2E1B6E001900D9295
:1013F0008A95E1F782E196E00E94A62090931D066F
:1014000080931C068091FA03813081F58091E4037A
:101410009091E503029711F40C9416128091E60363
:101420009091E703019711F12091E8033091E903CE
:101430004091F20650E012161306C4F48091E206C1
:101440009091E3064817590709F4D4C7E4EEF6E093
:10145000220F331F2E51394F06C0819191914817A9
:10146000590709F4C7C72E173F07B9F78091E20360
:101470009091E303F4CB4091F406442309F461C551
:101480009091F506C92F992309F4D1C5491708F0A1
:10149000CEC5921708F0CBC54093C2039093C10309
:1014A0002093C003842F322F2091ED034091FF033E
:1014B0004093090610920A0680930B0690930C063F
:1014C00030930D0610920E0610920F0670931006C0
:1014D0002093110689E0E9E0F6E0A2E1B6E0019090
:1014E0000D928A95E1F782E196E00E94A620909302
:1014F0001D0680931C0680910001813009F48CCD7B
:101500008091ED030C945A028091F80390E0281723
:1015100039070CF053C182E08093FA038091ED0308
:101520009091FD032091FF032093090690930A06F2
:1015300010920B0610920C0610920D0610920E06D9
:1015400010920F06109210068093110689E0E9E0D0
:10155000F6E0A2E1B6E001900D928A95E1F782E112
:1015600096E00E94A62090931D0680931C0683E0BF
:101570000E94391E8091FA03823009F42ACA04CAF3
:101580008091C80381110C9486028091C5039091CB
:10159000C6030E94C6240E94C1246DEF70E00E9421
:1015A000FF2101969093FE038093FD0391E09093B9
:1015B000C8039091ED032091FF0320930906109238
:1015C0000A0680930B0610920C0610920D061092DC
:1015D0000E0610920F06109210069093110689E0E5
:1015E000E9E0F6E0A2E1B6E001900D928A95E1F71C
:1015F00082E196E00E94A62090931D0680931C062F
:101600000C9486029091F8068091E10391119093D9
:10161000E003882309F462CD4BCD2091D00322232F
:1016200009F432CC4091CF03442309F42DCC6091CE
:10163000E4037091E503672B09F026CC30E0B90193
:10164000680F711DCB01840F911D63E070E00E9453
:10165000FF217093E5036093E40316CC2091F40618
:10166000213009F010CB4091E6035091E70341157A
:10167000510511F40C94A9142091E403942F07CB85
:101680002091F306213009F04ECB2091F406213051
:1016900009F049CBC091F506CC2309F444CB209145
:1016A000E6033091E703232B09F03DCB2091E803BB
:1016B0003091E9034091F20650E0121613060CF047
:1016C00032CB6091E2067091E3064617570711F49A
:1016D0000C941E15E4EEF6E0220F331F2E51394F05
:1016E00007C0619171914617570711F40C941E15AC
:1016F0002E173F07B1F717CB2091E8033091E9038C
:101700004091F20650E0121613060CF054CA809174
:10171000E2069091E3064817590709F440C7E4EE42
:10172000F6E0220F331F2E51394F06C0819191915F
:101730004817590709F433C72E173F07B9F73BCAB3
:1017400083E30E94391ECACB2091F306211129CDD3
:101750009093DF038093DE0380911E0790911F0713
:10176000A0912007B09121078093F0039093F1039B
:10177000A093F203B093F30380E00E94391E10920D
:10178000CD030FCD89E30E94391E83C90E94C12475
:10179000BE010E94FF210196909300048093FF03F5
:1017A000ECCBA093CD038091CD03882311F40C944E
:1017B00065028CE00E94391E0C9465028091FA0348
:1017C000823009F0E1C8AACE452F3091C003281716
:1017D00009F490C991118EC9281708F4D5C5209332
:1017E000C103922F87C983E00E94391E77CB1092E4
:1017F000DF031092DE0389E08093ED0340911E0722
:1018000050911F0760912007709121074093F403C6
:101810005093F5036093F6037093F70340911E070E
:1018200050911F0760912007709121074093F003AA
:101830005093F1036093F2037093F3039091E003EC
:101840002091E1033091E4034091E6035091FF03BE
:101850005093090640930A0630930B0610920C062B
:1018600010920D0620930E0690930F06109210060C
:1018700080931106E9E0F6E0A2E1B6E001900D9256
:101880008A95E1F782E196E00E94A62090931D06DA
:1018900080931C063DCB8091ED039091FA0320913B
:1018A000FF032093090610920A0610920B0610926D
:1018B0000C0610920D0610920E0610920F069093D1
:1018C00010068093110689E0E9E0F6E0A2E1B6E0B7
:1018D00001900D928A95E1F782E196E00E94A620A0
:1018E00090931D0680931C0680E00E94391E109282
:1018F000D7031092D6031092D5038091FA03823059
:1019000009F44AC58091F4039091F503A091F60380
:10191000B091F7036CC98091ED039091E40320919D
:10192000E6033091FF033093090620930A06909353
:101930000B0610920C0610920D0610920E061092D5
:101940000F06109210068093110689E0E9E0F6E098
:10195000A2E1B6E001900D928A95E1F782E196E06E
:101960000E94A62090931D0680931C068091F4038C
:101970009091F503A091F603B091F703E8C9409167
:101980001E0750911F076091200770912107409317
:10199000F4035093F5036093F6037093F70390916B
:1019A000DA032091E4033091E6034091FF03409372
:1019B000090630930A0620930B0690930C061092AA
:1019C0000D0610920E0610920F06109210068093CC
:1019D000110689E0E9E0F6E0A2E1B6E001900D929F
:1019E0008A95E1F782E196E00E94A62090931D0679
:1019F00080931C0681E08093FC03D2C84091F306DB
:101A00000C94060380E00E94391E80910906909193
:101A1000EA03882311F0981738F58091ED0320919F
:101A2000F3069093090620930A0610920B06109273
:101A30000C0610920D0610920E0610920F061092D0
:101A400010068093110689E0E9E0F6E0A2E1B6E035
:101A500001900D928A95E1F782E196E00E94A6201E
:101A600090931D0680931C068091FA03823009F042
:101A7000A1C98091EA03882379F08091F20690E071
:101A80002091FF0330910004821793070CF4B5C630
:101A90008217930709F4A6C640911E0750911F07AD
:101AA00060912007709121078091F4039091F503D4
:101AB000A091F603B091F70388539F4FAF4FBF4FEC
:101AC00084179507A607B70708F07CC9C0910101E4
:101AD000D0910201C130D10509F074C98AE20E9497
:101AE000391ED093E303C093E203D093E703C0937E
:101AF000E603D093E503C093E40381E08093DA0327
:101B000021E091E01092CE0382E08093ED034091BA
:101B10001E0750911F076091200770912107409385
:101B2000F4035093F5036093F6037093F703109258
:101B3000EA033091FF033093090620930A0690933D
:101B40000B0610920C0610920D0610920E061092C3
:101B50000F06109210068093110689E0E9E0F6E086
:101B6000A2E1B6E001900D928A95E1F782E196E05C
:101B70000E94A62090931D0680931C0629C980917F
:101B8000E2039091E303892B11F00C944F058091AF
:101B9000ED039091DA032091FF03209309069093BF
:101BA0000A0610920B0610920C0610920D06109267
:101BB0000E0610920F06709310068093110689E0AE
:101BC000E9E0F6E0A2E1B6E001900D928A95E1F736
:101BD00082E196E00E94A62090931D0680931C0649
:101BE0009091F406C091F5069C1709F484CC2091DD
:101BF000F606C21709F47FCC921709F47CCC99231E
:101C000009F479CCCC2309F476CC222309F473CCE3
:101C10002091DA03921709F4E7C7C21709F4DBC76A
:101C20008091F606821367CC83E080930001809157
:101C3000ED030C945A028091F306823009F053C8E8
:101C40008091F406823009F04EC88091EA03811138
:101C50004AC88091E8039091E9034091F20650E070
:101C6000181619060CF03FC82091E2063091E306E1
:101C70004217530779F0E4EEF6E0880F991F8E5172
:101C8000994F8E179F0709F42EC821913191421761
:101C90005307B9F78CE30E94391E81E08093EA0371
:101CA0002091E2063091E3068091F20690E08217DF
:101CB000930709F47EC78090ED03A12CC12CE12C81
:101CC00000E04091E4036091E6038091FF030E94ED
:101CD0007E010C9473062091E6033091E7032115F1
:101CE000310509F465C3C90165E070E00E94FF2178
:101CF0008130910509F421C68230910509F421C68D
:101D00008330910509F421C68430910509F46CC62D
:101D1000892B09F408C640911E0750911F07609156
:101D20002007709121078091F4039091F503A09111
:101D3000F603B091F70388539F4FAF4FBF4F8417FF
:101D40009507A607B70710F00C9465025091E103C0
:101D5000852F869590E08217930709F43FC4852F5D
:101D600090E00196959587958217930709F436C4FC
:101D70008091ED038EC88091ED039091E80320914E
:101D8000FF032093090690930A0610920B06109207
:101D90000C0610920D0610920E0610920F0610926D
:101DA00010068093110689E0E9E0F6E0A2E1B6E0D2
:101DB00001900D928A95E1F782E196E00E94A620BB
:101DC00090931D0680931C062091E8033091E9034F
:101DD0004091F2061216130614F00C94A20450E07F
:101DE0008091E2069091E3068417950781F0E4EE76
:101DF000F6E0220F331F2E51394F2E173F0711F4F3
:101E00000C94A2048191919184179507B1F7809168
:101E1000F90681110C94A2048091F3069091F903C4
:101E2000891710F48093F9039091F803981710F034
:101E30000C94A2048093F8030C94A20481E090E037
:101E40009093DF038093DE0380E00E94391E80912F
:101E5000ED030C9449029091F306992311F40C942C
:101E60001F079093EA032091D40321114EC490934D
:101E7000D4039091E0032091E1033091E403409179
:101E8000E6035091FF035093090640930A063093EE
:101E90000B0610920C0610920D0620930E069093DE
:101EA0000F06109210068093110689E0E9E0F6E033
:101EB000A2E1B6E001900D928A95E1F782E196E009
:101EC0000E94A62090931D0680931C068091F40624
:101ED0008093EA039091D10391110DC48093D103B3
:101EE0008091ED039091E0032091E1033091E403B0
:101EF0004091E6035091FF035093090640930A0670
:101F000030930B0610920C0610920D0620930E06CD
:101F100090930F06109210068093110689E0E9E075
:101F2000F6E0A2E1B6E001900D928A95E1F782E138
:101F300096E00E94A62090931D0680931C060C94A8
:101F40001F076091F30661110FC08091C203909149
:101F5000C1035091F506552309F436CC3091C003E6
:101F60000C946D054091F406C091F5068091C20372
:101F700081113FC06093C2039091C103862F0C94DE
:101F800060056091F40670E02617370711F40C9491
:101F9000C3028093C7039091ED032091FD0330911C
:101FA000FF033093090610920A0620930B068093D4
:101FB0000C0610920D0610920E0610920F0610924B
:101FC00010069093110689E0E9E0F6E0A2E1B6E0A0
:101FD00001900D928A95E1F782E196E00E94A62099
:101FE00090931D0680931C064091F20650E00C94DD
:101FF000C3029091C103861709F4B9C5911121C09C
:102000006093C103962F3091C003442311F40C94C4
:102010006A05841709F4CAC591110C946A0548171A
:1020200008F4AAC14093C103942F0C946A056091EF
:10203000F30661119BCF8091C2039091C1030C9470
:1020400062053091C003961701F33111DECF609322
:10205000C003362FDACF87E08093ED0340911E074F
:1020600050911F0760912007709121074093F4035E
:102070005093F5036093F6037093F70340911E07A6
:1020800050911F0760912007709121074093F00342
:102090005093F1036093F2037093F3039091E00384
:1020A0002091E1033091E4034091E6035091FF0356
:1020B0005093090640930A0630930B0610920C06C3
:1020C00010920D0620930E0690930F0610921006A4
:1020D0008093110689E0E9E0F6E0A2E1B6E0019024
:1020E0000D928A95E1F782E196E00E94A6209093F6
:1020F0001D0680931C061092DF031092DE0380E021
:102100000E94391E0C94880880E00E94391E1092AB
:10211000EC031092EB0380911E0790911F07A09192
:102120002007B09121078093F0039093F103A093CF
:10213000F203B093F30320910801309109018091DB
:10214000DE039091DF030196B9010E94FF21909375
:10215000DF038093DE031092CD0351C820910A0162
:1021600030910B01220F331F121613060CF01BCBFC
:102170004091E6035091E7036091E4037091E50319
:10218000A091CD03EAE0F3E0220F331F265F3C4F1E
:1021900005C03496E217F30709F403CB80819181DF
:1021A00084179507B1F7828193818617970789F77E
:1021B000A1E0EFCF20910C0130910D01220F331FD0
:1021C000121613060CF0EFCA4091E6035091E70394
:1021D0006091E4037091E503A091CD03E2E6F2E0A3
:1021E000220F331F2E593D4F05C03496E217F307D7
:1021F00009F4D7CA8081918184179507B1F782814C
:1022000093818617970789F7A1E0EFCF8091D903D3
:102210008F5F90E00E94FF218093D9032091ED030E
:10222000FC01FF27EE0FFF1FEE51F94F80819091C7
:10223000FF039093090680930A0610920B061092F2
:102240000C0610920D0610920E0610920F0682E4F4
:10225000809310062093110689E0E9E0F6E0A2E100
:10226000B6E001900D928A95E1F782E196E00E9436
:10227000A62090931D0680931C0680911E079091C6
:102280001F07A0912007B09121078093F40390933A
:10229000F503A093F603B093F7030C9481048091A7
:1022A000ED03E091D903F0E0EE0FFF1FEE51F94F7F
:1022B00090812091FF032093090690930A061092C3
:1022C0000B0610920C0610920D0610920E0610923C
:1022D0000F0692E4909310068093110689E0E9E0DE
:1022E000F6E0A2E1B6E001900D928A95E1F782E175
:1022F00096E00E94A62090931D0680931C0681E024
:102300008093FC0380911E0790911F07A0912007E6
:10231000B09121078093F4039093F503A093F60303
:10232000B093F70380E00E94391E0C94390480E0DA
:102330000E94391E8091E8039091E9030C94F903FF
:102340009091E4032091E603DDCB8FE30E94391ED8
:102350000C946E078CE00E94391E0C946E0780E38B
:102360000E94391E0C946E078093C1035093C203E0
:10237000982F852F0C9478058093C1034093C20356
:10238000982F842F0C946A058093C1032093C20375
:10239000982F822F0C947A058091E2039091E303A9
:1023A000892B09F0AFCA8091DA038093D703AACAB8
:1023B00083E00E94391E40911E0750911F076091D3
:1023C0002007709121078091F4039091F503A0916B
:1023D000F603B091F70388539F4FAF4FBF4F841759
:1023E0009507A607B70708F0C3CC2091E603309104
:1023F000E703ACCC8091DA03811138C8C091F506AF
:10240000CC2309F433C881E08C0F8093DA038FE288
:102410000E94391E8091FA03813009F027C880910B
:10242000E4039091E503029709F020C82091E803A6
:102430003091E9034091F20650E0121613060CF0B9
:1024400015C88091E2069091E3064817590709F4F0
:1024500050C2E4EEF6E0220F331F2E51394F06C072
:10246000819191914817590709F443C22E173F07EC
:10247000B9F70C94360A8430910509F03BC32091DA
:10248000100130911101220F331F121613060CF0A8
:102490008AC94091E6035091E7036091E40370918B
:1024A000E503A091CD03E2E1F1E0220F331F2E5EA0
:1024B0003E4F05C034962E173F0709F472C980813C
:1024C000918184179507B1F78281938186179707C9
:1024D00089F7A1E0EFCF992311F40C946E08809155
:1024E000E0030C946B0883E00E94391E8091000188
:1024F000813009F4D4C1823009F460C2833009F01C
:10250000E1C18091FA03823009F489C2813011F06F
:102510000C946E088091E6039091E703892B11F0EB
:102520000C946E088091E4039091E503892B11F0DF
:102530000C946E084091DA038091E10350E0481753
:1025400008F0A2C25093E7034093E60321E030E095
:102550003093E5032093E4032091E00330E090E022
:10256000B901680F791F62507109461757070CF4BB
:10257000A5C2880F991F820F931F04974817590708
:102580000CF0A6C2841B950B01969093E7038093F1
:10259000E6033093E5032093E4030C946E08C091A6
:1025A000F5069C2FC23010F40C94DB052091D70364
:1025B0002111BDC1C093D7039091D603992311F483
:1025C0000C94DB052C2F921708F025C29093D503AD
:1025D000892F8F5F8093DA030C94DB054091E00331
:1025E0006091E4037091E503842F869590E086174F
:1025F000970749F0842F90E0019695958795681785
:10260000790709F0B5CB88E08093ED0380901E0731
:1026100090901F07A0902007B09021078092F403AC
:102620009092F503A092F603B092F70380901E07F4
:1026300090901F07A0902007B09021078092F00390
:102640009092F103A092F203B092F3039091FF03F2
:102650009093090620930A0660930B0610920C06CD
:1026600010920D0650930E0640930F06109210061E
:102670008093110689E0E9E0F6E0A2E1B6E001907E
:102680000D928A95E1F782E196E00E94A620909350
:102690001D0680931C066CCB8091F906823411F0E4
:1026A0000C9467049B01220F331FF901EE51F94F7F
:1026B0008A2F90E091838083F901EE52F94F809147
:1026C000050190910601918380836F5F7F4F709326
:1026D000E9036093E8030C9467048FE00E94391EBD
:1026E0000C946E078FE30E94391E8091E80390914D
:1026F000E9030C941204891709F4F2CB9091D003EA
:102700009111EDC08093D003EBCB921709F4B1CBBC
:102710002091D3032111D9C09093D303AACB83E096
:102720000E94391E8091E8039091E9030C94F40310
:102730008AE20E94391E8091E8039091E9030C948B
:102740000D0483E30E94391E8091E8039091E90310
:102750000C9408048CE30E94391E8091E803909148
:10276000E9030C9403048FE00E94391E8091E80372
:102770009091E9030C94FE0380E30E94391E80913E
:10278000E8039091E9030C94EF038CE00E94391E5A
:102790008091E8039091E9030C94EA033091C0031F
:1027A00038CC9093C0038093C1035093C203392F58
:1027B000982F852F0C94A2059093C0038093C1039A
:1027C0002093C203392F982F822F0C94BE0590932B
:1027D000C0038093C1034093C203392F982F842FE5
:1027E0000C9489058091F30690E02091FD033091CF
:1027F000FE03821793070CF04FC980E00E94391E38
:1028000010920201109201018091ED039091F30664
:102810002091F2062093090690930A0610920B0667
:1028200010920C0610920D0610920E0610920F06D2
:10283000109210068093110689E0E9E0F6E0A2E12B
:10284000B6E001900D928A95E1F782E196E00E9450
:10285000A62090931D0680931C0640911E07509160
:102860001F0760912007709121078091F4039091D8
:10287000F503A091F603B091F70388539F4FAF4F34
:10288000BF4F84179507A607B70710F00C94E20610
:102890008091FA03823009F419C90C94E206809100
:1028A000E2039091E303892B69F48091E10390E0C6
:1028B0009093E7038093E60381E090E09093E50333
:1028C0008093E4038091FA0321CE921709F4D1CAD0
:1028D0002091D2032111CDCA9093D203CACA89177D
:1028E00009F4FECA9091CF039111FACA8093CF03E5
:1028F000F7CA8091F306823011F40C94360A809165
:10290000DA0381110C94360AC091F506C33010F435
:102910000C94360A81E08C0F8093DA0383E00E94E6
:10292000391E0C94360A8FE30E94391E44CDC2171B
:1029300009F415C19093D60346CE8CE00E94391E4F
:102940003ACD80E30E94391E36CD83E30E94391EC2
:1029500032CD2091E8033091E9036091F20670E0F6
:1029600012161306BCF44091E2065091E306641778
:102970007507F1F1E4EEF6E0220F331FA9014E5185
:10298000594F05C0219131916217730789F14E1794
:102990005F07C1F72091E4030C94470650E00C94C4
:1029A00018038091FF03909100048417950709F4A0
:1029B000D9C0EB01CC0FDD1F0C94F1028091E20332
:1029C0009091E303892B09F07DCF8091E10390E0A2
:1029D0009093E7038093E6038091E00390E0909367
:1029E000E5038093E4036ECF8FE00E94391EE3CCB1
:1029F0008CE00E94391E82E090E09093E703809380
:102A0000E6039093E5038093E40392E022E0809153
:102A1000ED030C9447062093D503822FDACD81E095
:102A200090E09093E7038093E6038091E00390E0C9
:102A30009093E5038093E4030C946E082C2F30E010
:102A40008091FF03909100042817390709F492C080
:102A500082E090E09093E7038093E60381E090E0CA
:102A60009093E5038093E40382E08093DA0384E3A8
:102A70000E94391E8091F4039091F503A091F60312
:102A8000B091F7030C9493062091E00330E090E0BE
:102A9000B901680F791F62507109461757070CF08A
:102AA00068CD9093E7038093E603BA01681B790B26
:102AB0006E5F7F4F7093E5036093E403880F991F67
:102AC000820F931F04974817590714F40C946E084B
:102AD00061E070E07093E7036093E603481B590BD5
:102AE000C901841B950B01979093E5038093E40340
:102AF0000C946E08892B11F00C94D30B220F331F0A
:102B0000F901E85FFE4F20813181220F331F121639
:102B1000130614F00C94D30B4091E6035091E70395
:102B20006091E4037091E503A091CD03E2E1F1E04F
:102B3000220F331F2E5E3E4F06C03496E217F30776
:102B400011F40C94D10B8081918184179507A9F71A
:102B5000828193818617970781F7A1E0EECF90914C
:102B6000D6032CCD4091F30650E00C94180330911D
:102B7000C0034BCA81E090E09093E7038093E603A3
:102B800082E090E09093E5038093E40387E00E9465
:102B9000391EC091F5062C2F30E08091FF039091F3
:102BA00000042817390709F465CF52CF482F0C9439
:102BB0006A058090ED03A12CC12CE12C00E020914E
:102BC000E4064091E4036091E6038091FF030E94D4
:102BD0007E010C94730682E0809300018CE00E94D9
:102BE000391E2091DA031CC881E08093000183E044
:102BF0000E94391E2091DA032093E103C091F5066B
:102C00000C940D0E089580E090E008950895DF92F1
:102C1000EF92FF920F931F93CF93DF93F89414B822
:102C200017B81AB815B818B81BB8529A5A9A14BCE3
:102C300085E085BD8FEF87BD82E080936E001092A6
:102C40008000109281002FE83BE0309389002093B0
:102C5000880080936F005398239891EA9093B00076
:102C60008093B1001092B4001092B3008BE080BF4B
:102C700083E080937F0086E080937C0083E88093EC
:102C80007A0080917A00806480937A0080917A0043
:102C900086FDFCCF10927C0083EA80937A0081E06D
:102CA00080937B0081E090E00E94D8248F3F11F058
:102CB0008093660010922207C1E0C093FB06C09388
:102CC0003F07109219071092530780E990E00E9485
:102CD000D8248093180780911807887311F0C09347
:102CE000180710924307109242078FEF90E09093DD
:102CF00041078093400710921E0710921F07109201
:102D000020071092210781E080930A0482E49FE06B
:102D1000909352078093510780EB90E00E94D82453
:102D2000C82F81EB90E00E94D8242C2F30E0382B64
:102D3000309355072093540785E090E00E94D824F3
:102D40008093590789E090E00E94D824809344073B
:102D50008CE090E00E94D8248093570784E190E0B3
:102D60000E94D8248093580753E2E52E57E0F52EB1
:102D70000CEF16E0C0E2D0E0CE010E94D824D82E9D
:102D8000CE0101960E94D8242D2D30E0322F22272B
:102D9000282BF701219331937F01CE01C0960E9429
:102DA000D824D82ECE01C1960E94D8242D2D30E0F3
:102DB000322F2227282BF801219331938F0122965D
:102DC000CC33D105C9F67894DF91CF911F910F9143
:102DD000FF90EF90DF9008951F920F920FB60F9221
:102DE00011248F930FB6F894A895809160008861A4
:102DF00080936000109260000FBE8F910F900FBE05
:102E00000F901F9018952AE0EFEFFFEF66E033E890
:102E10009091220791112BC0F89460937C0030931D
:102E20007A0090917A00906490937A0090917A0061
:102E300096FDFCCF409178005091790078944D3CFC
:102E400092E0590724F4E417F5070CF4FA01215035
:102E5000F9F6882351F0F89410927C0083EA80936D
:102E60007A0081E080937B007894CF0108954FEF42
:102E70005FEFE9CF7C018B01D12C99249A94D6E0A5
:102E8000C3E883EA582E8824839466246A94762CB7
:102E900024E0A22E38E1B32E49E2C42EE0910A04C8
:102EA000F0E0E730F105D0F7EC5CFF4F0C94132213
:102EB00010920604489951C1559A54983B983A98F3
:102EC0003D983C988FEC97E00197F1F700C0000027
:102ED000559854983B983A983D983C989FEFE1EE6E
:102EE000F4E09150E040F040E1F700C00000D6CFA0
:102EF0008091220781111BC080910604853080F0EB
:102F000010920A04CBCFDD2009F498C11092060478
:102F1000A0920A0480912207DD24D394811107C076
:102F2000F894809105048F3F09F4D3C17894F80197
:102F30000995B4CF80912207811196C1F894D0935E
:102F40007C00C0937A0080917A00806480937A003C
:102F500080917A0086FDFCCF809178009091790075
:102F600078949093B4038093B303109206048B3A41
:102F700022E092070CF03FC18938E2E09E070CF096
:102F80008EC1873692400CF475C1559A549A3B9A7B
:102F90003A9A3D983C9882CF80912207811132C1A4
:102FA00080910604853008F0ABCF9AE02FEF3FEF19
:102FB000809122078111E9C1F894D0937C00C093DD
:102FC0007A0080917A00806480937A0080917A0000
:102FD00086FDFCCF409178005091790078944D3C6B
:102FE000E2E05E0724F4241735070CF49A019150AF
:102FF000F9F63093B4032093B3032F3FFFEF3F075D
:1030000009F4C6C1233282E038070CF0A3C18091D5
:1030100006048F5F809306042938E2E03E070CF037
:10302000C1C1559A549A273632400CF447CF3B9A87
:103030003A9A3D983C9846CFF89480B7877F80BFF6
:1030400080917A008F7780937A0014B817B81AB8F5
:1030500015B818B81BB80FB6F894A895B0926000D0
:103060000FBEC09260008091600080648093600019
:1030700083B7817F846083BFF89483B7816083BF07
:103080007894889583B78E7F83BF789410922207B7
:10309000529A5A9A80917A00806880937A0087E5E4
:1030A00092E00197F1F700C0000080B7886180BF0F
:1030B00080910604853009F4C7C09AE02FEF3FEFF6
:1030C000809122078111BDC0F894D0937C00C093F9
:1030D0007A0080917A00806480937A0080917A00EF
:1030E00086FDFCCF409178005091790078944D3C5A
:1030F00082E0580724F4241735070CF49A01915004
:10310000F9F63093B4032093B3032F3F9FEF3907B1
:1031100009F4CCC02332E2E03E070CF05EC080919F
:1031200006048F5F80930604293882E038070CF08C
:10313000C4C0559A549A273632400CF0C5C03B980B
:103140003A983D983C98EFE1FEE43197F1F700C0E2
:10315000000080912207811194C0559854983B98A3
:103160003A983D983C989ACE1092060480910804B3
:10317000811107C01092B3001092B400109209049C
:103180008DCE9091080480910904981709F486CE99
:10319000809108048093090480910804813009F427
:1031A00008C1809108041092B3009092B40082305C
:1031B00009F4DEC09092B3009092B4008FE295E7DC
:1031C0000197F1F700C000008091580790915707D0
:1031D0009093B3008093B40061CE109206042B3A12
:1031E000F2E03F070CF4A0CF559854983B9A3A9AD6
:1031F0003D983C98A8CF559854983B9A3A9A3D9858
:103200003C984CCE559854983B9A3A9A3D983C98A5
:10321000EFECF7E03197F1F700C0000055985498B3
:103220003B983A983D983C98FFEF21EE84E0F150AE
:1032300020408040E1F700C0000030CEF701099542
:1032400065CE4FEF5FEF57CF559A549A3B983A9817
:103250003D983C989FEFE9E6F8E19150E040F0405E
:10326000E1F700C0000079CF7092B4036092B3031D
:1032700010920604559A549A3B983A983D983C9877
:103280000DCE559854983B9A3A9A3D983C98FFEF4A
:1032900020E782E0F15020408040E1F7E2CF5598EE
:1032A00054983B983A983D9A3C9AF8CD559A549A3E
:1032B0003B9A3A9A3D9A3C9A46CF559854983B98F7
:1032C0003A983D9A3C9A3FCF3B9A3A9A3D983C981F
:1032D0003ACF1092050478949AE02FEF3FEF809157
:1032E0002207811177C0F894D0937C00C0937A00B4
:1032F00080917A00806480937A0080917A0086FDC4
:10330000FCCF409178005091790078944D3CF2E0E8
:103310005F0724F4241735070CF49A019150F9F64D
:10332000F89410927C0050927A0080927B007894FE
:103330003093B4032093B3032F3F8FEF380709F482
:10334000F6CD233232405CF5809106048F5F809386
:103350000604EDCD109206042B3A92E039070CF4E6
:103360005BCE559854983B9A3A9A3D983C98AACD92
:10337000EFE2F5E73197F1F700C0000080914407D4
:103380001092B3008093B40089CD4FEF5FEF2BCE46
:10339000559A549A3B9A3A9A3D9A3C9A93CD1092F8
:1033A0000604C5CD559854983B983A983D9A3C9A56
:1033B00089CD9092B3001092B4008FE295E7019707
:1033C000F1F700C00000809159078093B30010927C
:1033D000B40064CD4FEF5FEF9DCF07C0EFECF7E097
:1033E0003197F1F700C0000001970097B9F70895F1
:1033F0008093B3006093B40008958FEF8093B3007F
:103400008093B4008FE090E0EFECF7E03197F1F7B4
:1034100000C000000197C1F7089580912207811133
:103420001EC0F89487E080937C0083E880937A0044
:1034300080917A00806480937A0080917A0086FD82
:10344000FCCF809178009091790010927C0023EA63
:1034500020937A0021E020937B00789408958FEFE9
:103460009FEF08958091220781111EC0F89488EC87
:1034700080937C0087E880937A0080917A00806452
:1034800080937A0080917A0086FDFCCF809178004D
:103490009091790010927C0023EA20937A0021E039
:1034A00020937B00789408958FEF9FEF08950F93FA
:1034B0001F93CF93DF93E0E0F0E080E003EA11E0B8
:1034C000D6E0C3E8A1E0B0E060E870E0F894D09303
:1034D0007C00C0937A0090917A00906490937A0077
:1034E00090917A0096FDFCCF209178003091790080
:1034F000217090917A00906490937A0090917A0074
:1035000096FDFCCF409178005091790010927C009C
:1035100000937A0010937B0078944170241303C0C9
:103520006150710999F6222339F09D010E2E01C0D8
:10353000220F0A94EAF7822B3196E830F10509F060
:10354000C3CFDF91CF911F910F9108958091B20366
:10355000982F990F990F990F89279091070421E0CF
:10356000290F20930704282F22952695277082275C
:103570009695969589278093B20308958093B20318
:10358000089580912207811116C0F89486E08093F7
:103590007C0083E880937A0080917A008064809335
:1035A0007A0080917A0086FDFCCF8091780090911E
:1035B0007900789408958FEF9FEF08952F923F92AE
:1035C0004F925F926F927F928F929F92AF92BF9233
:1035D000CF92DF92EF92FF920F931F93CF93DF93DF
:1035E00000D000D000D0CDB7DEB71C01DC011296B0
:1035F0000D90BC91A02DBE83AD83A438E3E0BE073F
:103600000CF0CBC08091FC069091FD068A179B07B9
:1036100008F48CC10091FE061091FF060A171B07E3
:1036200008F422C200910007109101070A171B0736
:1036300008F428C200910207109103070A171B071C
:1036400008F424C200910407109105070A171B070C
:1036500008F425C200910607109107070A171B07F7
:1036600008F4E6C100910807109109070A171B0723
:1036700008F41EC200910A0710910B070A171B07D6
:1036800008F41FC200910C0710910D070A171B07C1
:1036900008F425C200910E0710910F070A171B07A7
:1036A00008F426C200911007109111070A171B0792
:1036B00008F422C200911207109113070A171B0782
:1036C00008F423C200911407109115070A171B076D
:1036D00008F424C200911607109117070A171B0758
:1036E00008F425C280E090E0A0EDB0E489839A83DD
:1036F000AB83BC832CE0E22EF12CF701EE0FFF1F11
:10370000E450F94F80819181B801681B790B80E00A
:1037100090E00E9456239B01AC010E943D226B0168
:103720007C01AD81BE81BD01BB0F880B990B0E944E
:1037300058234B015C01B80180E090E00E945623C1
:103740002B013C0129813A814B815C81C701B60183
:103750000E9408249B01AC01C301B2010E943C22DB
:103760009B01AC01C501B4010E943C2220E030E085
:1037700040E251E40E9408240E9420238B01C701EB
:10378000B6010E942023AB01BC01C801BA010E940E
:10379000FF216983ED81FE81CBC0DC01CD90DC90FF
:1037A00080912307909124078C159D0508F4DFC0B4
:1037B000BFEFB98300912507109126070C151D0551
:1037C00008F456C100912707109128070C151D0514
:1037D00008F453C10091290710912A070C151D0503
:1037E00008F458C100912B0710912C070C151D05EA
:1037F00008F459C100912D0710912E070C151D05D5
:1038000008F4B7C000912F07109130070C151D0563
:1038100008F452C100913107109132070C151D05B3
:1038200008F453C100913307109134070C151D059E
:1038300008F450C100913507109136070C151D058D
:1038400008F451C100913707109138070C151D0578
:1038500008F456C10091390710913A070C151D055F
:1038600008F457C100913B0710913C070C151D054A
:1038700008F458C100913D0710913E070C151D0535
:1038800008F459C11AE5B981BF3F09F459C1ED8166
:10389000FE81BF01FF0F880B990B0E9458234B013B
:1038A0005C01F9816F2F70E080E090E00E94562368
:1038B0006B017C01A501940160E070E081E694E475
:1038C0000E943C229B01AC01C701B6010E94082462
:1038D0006B017C01612F70E080E090E00E94562334
:1038E0002B013C0120E030E04FE254E4C501B4017B
:1038F0000E943C229B01AC01C301B2010E9408243A
:103900009B01AC01C701B6010E943D2220E030E0DE
:1039100048E453E40E94AE2220E030E044E052E468
:103920000E943D220E942723862F08C01982FD0194
:10393000ED3BF2400CF007C189818F5D26960FB6F2
:10394000F894DEBF0FBECDBFDF91CF911F910F91D5
:10395000FF90EF90DF90CF90BF90AF909F908F90AF
:103960007F906F905F904F903F902F90089581E2ED
:10397000E5CFF5E03F2EE5E0F0E0EE0FFF1FEF5D55
:10398000F84F80819181B801681B790B80E090E04D
:103990000E9456239B01AC010E943D224B015C0119
:1039A000B601DD0C880B990B0E9458232B013C01BA
:1039B000B80180E090E00E9456236B017C01632DEA
:1039C00070E080E090E00E94562320E030E040E08C
:1039D0005FE30E94082420E030E0A9010E943D221C
:1039E000A50194010E9408249B01AC01C701B60106
:1039F0000E943C229B01AC01C301B2010E943C2207
:103A000020E030E040E251E40E9408240E9420239C
:103A10008B01C501B4010E942023AB01BC01C80188
:103A2000BA010E94FF21162F6F3F09F02CCF84CFDF
:103A300065E085E090E07C01F1E0EF1AF10870E0CC
:103A400080E090E00E94562320E030E040E05FE319
:103A50000E94082420E030E0A9010E943D226983F1
:103A60007A838B839C8349CE61E081E090E0E3CF51
:103A700033243394E1E0F0E080CF82E0382EE2E0BE
:103A8000F0E07BCF62E082E090E0D5CF63E083E0BE
:103A900090E0D1CFB3E03B2EE3E0F0E06ECF64E006
:103AA00084E090E0C8CFA4E03A2EE4E0F0E065CFF7
:103AB00066E086E090E0BFCFE6E03E2EE6E0F0E094
:103AC0005CCF67E087E090E0B6CF77E0372EE7E0A5
:103AD000F0E053CF68E0362EE8E0F0E04ECF68E04B
:103AE00088E090E0A8CF59E0352EE9E0F0E045CF3E
:103AF00069E089E090E09FCF6AE08AE090E09BCFA8
:103B00004AE0342EEAE0F0E038CF6BE08BE090E062
:103B100092CF3BE0332EEBE0F0E02FCF6CE08CE077
:103B200090E089CF2CE0322EECE0F0E026CF6DE083
:103B30008DE090E080CF9DE0392EEDE0F0E01DCFEC
:103B400081E2810FFBCED101CD90DC9080912307E3
:103B5000909124078C159D0508F02CCE10E093CE93
:103B60001F920F920FB60F9211242F933F934F93F2
:103B70005F936F937F938F939F93AF93BF93EF93D5
:103B8000FF93209142073091430780914007909125
:103B90004107820F931F90934307809342078FEF53
:103BA00090E090934107809340078FEF87BD80910D
:103BB0001E0790911F07A0912007B0912107019641
:103BC000A11DB11D80931E0790931F07A09320078E
:103BD000B093210780910A04843021F1809122075B
:103BE00081110FC080915107909152072091420797
:103BF000309143078217930720F480910A048430A0
:103C0000C9F0FF91EF91BF91AF919F918F917F91FB
:103C10006F915F914F913F912F910F900FBE0F9039
:103C20001F901895809105048F3FC1F28F5F80939C
:103C30000504D4CFE091B703F091B803099500973C
:103C400001F30E945F2181110AC00E94C1249C01DE
:103C50003327309341072093400787BDD2CFE091AF
:103C6000B503F091B60309951092430710924207ED
:103C7000C8CF80FF11C0559A81FF11C0549A82FFAE
:103C800011C03B9A83FF11C03A9A84FF11C03D9A3C
:103C900085FD11C03C980895559881FDEFCF54984B
:103CA00082FDEFCF3B9883FDEFCF3A9884FDEFCFB5
:103CB0003D9885FFEFCF3C9A08951F920F920FB663
:103CC0000F9211248F939F93109281001092850080
:103CD0001092840081E08093FB0680933F0710924E
:103CE000220710927C0093EA90937A0080937B00E5
:103CF0009F918F910F900FBE0F901F9018951F925C
:103D00000F920FB60F9211242F933F934F935F930F
:103D10006F937F938F939F93AF93BF93CF93DF93D3
:103D2000EF93FF93209184003091850041E0409310
:103D300022078091FB068823A9F11092850010923A
:103D4000840040938100109253071092FB068091EB
:103D50003F078823A1F080917A0086FDFCCF8091F7
:103D600078009091790090931D0780931C0781E063
:103D700080937C0093EA90937A0080937B00FF917C
:103D8000EF91DF91CF91BF91AF919F918F917F91F3
:103D90006F915F914F913F912F910F900FBE0F90B8
:103DA0001F901895C901875891098437994008F0E8
:103DB00060C026583109A4EFB0E00E941922AA275A
:103DC000BB27883008F48CC04093FB0680913F07E6
:103DD000811163C080911907E82FF0E0EB5BF84F89
:103DE0009091530790838F5F809319078C3039F639
:103DF00010928100109285001092840040933F073A
:103E000010922207C0914F07D091500785E497E0A8
:103E10000E94A620C817D90709F0B1CF80914E079C
:103E200087FF72C090910A04943009F47FC090918A
:103E30000A04943009F474C090910A04943009F48F
:103E40009ECF1092560798E7980F933030F0539812
:103E500023981092B4001092B30090E0FC01E05857
:103E6000F109EB30F10508F08ACFE55CFF4F0C94C7
:103E700013221092810010928500109284004093CA
:103E8000FB0640933F071092220710927C0083EAC2
:103E900080937A0040937B0072CF80917A0086FDF8
:103EA000FCCF809178009091790090931B078093CC
:103EB0001A0710927C0083EA80937A0081E0809355
:103EC0007B00909153079923D1F0109281001092BA
:103ED00085001092840080933F07109222074FCFF5
:103EE00021E030E0F90102C0EE0FFF1F8A95E2F7F2
:103EF000CF0190915307892B8093530740CF1092A5
:103F00003F07109219073BCFE091B903F091BA0334
:103F10006AE177E085E497E00995109256072FCF84
:103F2000909156079A3009F087CF8BCF9091560722
:103F30009A3008F07CCF9F5F9093560720CF8091F6
:103F40004507823009F4CDC008F0B5C0882309F4D4
:103F50007BC0813009F0ACC0809146079091470743
:103F600090935507809354071092080480910A0497
:103F7000863009F404CF539A239A1092B400109219
:103F8000B30086E080930A04FACE80910A0486305A
:103F900099F0539A239A1092B4001092B300559856
:103FA00054983B983A983D983C9810920804109287
:103FB000090486E080930A0481E090E09C0100906F
:103FC000450702C0220F331F0A94E2F7809154077D
:103FD0009091550782239323892BB9F410920804FA
:103FE000CECE80910A04833009F4C9CE80910A04B0
:103FF000843009F4C4CE539A239A1092B4001092DC
:10400000B30083E080930A04BACE81E08093080471
:10401000B6CE82E080930A04B2CE85E080930A0493
:10402000AECE81E080930A04AACE10920A04A7CEF5
:10403000E0E0F0E0099580916E008D7F80936E0046
:1040400016BCE0E0F0E7099580910A04863009F09B
:1040500096CE6091540780EB90E00E94E02460913E
:10406000550781EB90E00E94E0246091590785E0BC
:1040700090E00E94E0246091440789E090E00E9473
:10408000E024609157078CE090E00E94E02460916A
:10409000580784E190E00E94E024539823981092FE
:1040A000B4001092B30081E080930A048091450728
:1040B00081115CCF64CE833069F18430C9F780917F
:1040C000080490914B078330D1F080914A071092F9
:1040D000090423E02093080480935707909358071E
:1040E00045CF80910804813019F1809148071092E2
:1040F000090491E0909308048093590737CF809189
:1041000058079813E2CF80914A07209157078213EE
:10411000DECF2CCF80910804823089F0809149074E
:104120001092090492E090930804809344071ECFF4
:1041300080914807909159078913D9CF17CF809163
:104140004907909144078913EBCF10CFFC01808180
:104150002FEF3FEF2827022E2295207F2025032EC8
:10416000322F22952F700226269532272327220FE1
:10417000220F220F202581812827022E2295207FC1
:104180002025032E322F22952F70022626953227C6
:104190002327220F220F220F202582812827022E7B
:1041A0002295207F2025032E322F22952F70022664
:1041B000269532272327220F220F220F20258381C5
:1041C0002827022E2295207F2025032E322F22958C
:1041D0002F700226269532272327220F220F220F27
:1041E000202584812827022E2295207F2025032E3A
:1041F000322F22952F700226269532272327220F51
:10420000220F220F202585812827022E2295207F2C
:104210002025032E322F22952F7002262695322735
:104220002327220F220F220F202586812827022EE6
:104230002295207F2025032E322F22952F700226D3
:10424000269532272327220F220F220F2025878130
:104250002827022E2295207F2025032E322F2295FB
:104260002F700226269532272327220F220F220F96
:10427000202580852827022E2295207F2025032EA9
:10428000322F22952F700226269532272327220FC0
:10429000220F220F20254185C9018427082E8295EF
:1042A000807F8025092E982F82958F70082686950D
:1042B00098278927880F880F880F802508950FB6C3
:1042C000F894A4B1209118072A2B24B921E0309149
:1042D0001807203029F0000025B1232B25B904C090
:1042E00000000000000000C0000000000000309549
:1042F00025B1232325B92EEA2A95F1F72BEE30B705
:1043000035FF0AC0A4B930911807309525B1232391
:1043100025B90FBE80E0089500002A9581F721E0BD
:1043200030911807203029F0000025B1232B25B942
:1043300004C000000000000000C0000000000000F9
:10434000309525B1232325B9000024E52A95F1F7FE
:10435000FC018CE0619170E0660F771F6160726014
:104360009AE041E050E09A0126233723232B309135
:104370001807203029F0000025B1232B25B904C0EF
:1043800000000000000000C00000000000003095A8
:1043900025B1232325B9000021E52A95F1F7440F23
:1043A000551F9A9501F78A95A9F620B7206120BF7D
:1043B000A4B930911807309525B1232325B90FBE34
:1043C00081E008950E9407168BE790E09093BA036E
:1043D0008093B90381E790E09093B8038093B7038B
:1043E00084E790E09093B6038093B50369EA71E0A7
:1043F00086EB90E00E943A1780E090E0089597FBEA
:10440000072E16F4009407D077FD09D00E942822C9
:1044100007FC05D03EF4909581959F4F08957095C7
:1044200061957F4F0895EE0FFF1F0590F491E02DE9
:104430000994A29FB001B39FC001A39F700D811D7D
:104440001124911DB29F700D811D1124911D08959D
:10445000AA1BBB1B51E107C0AA1FBB1FA617B707AA
:1044600010F0A61BB70B881F991F5A95A9F78095C6
:104470009095BC01CD0108955058BB27AA270E94F2
:1044800054220C94CE230E94C02338F00E94C723EC
:1044900020F039F49F3F19F426F40C94BD230EF458
:1044A000E095E7FB0C94B723E92F0E94DF2358F334
:1044B000BA17620773078407950720F079F4A6F509
:1044C0000C9401240EF4E0950B2EBA2FA02D0B01B5
:1044D000B90190010C01CA01A0011124FF27591B49
:1044E00099F0593F50F4503E68F11A16F040A22F4F
:1044F000232F342F4427585FF3CF469537952795C0
:10450000A795F0405395C9F77EF41F16BA0B620BBE
:10451000730B840BBAF09150A1F0FF0FBB1F661F05
:10452000771F881FC2F70EC0BA0F621F731F841F48
:1045300048F4879577956795B795F7959E3F08F06E
:10454000B0CF9395880F08F09927EE0F9795879530
:1045500008950E94932308F481E008950E94C222E6
:104560000C94CE230E94C72358F00E94C02340F031
:1045700029F45F3F29F00C94B72351110C940224C5
:104580000C94BD230E94DF2368F39923B1F35523D4
:1045900091F3951B550BBB27AA2762177307840756
:1045A00038F09F5F5F4F220F331F441FAA1FA9F3EC
:1045B00035D00E2E3AF0E0E832D091505040E695DA
:1045C000001CCAF72BD0FE2F29D0660F771F881F3B
:1045D000BB1F261737074807AB07B0E809F0BB0B2E
:1045E000802DBF01FF2793585F4F3AF09E3F510542
:1045F00078F00C94B7230C9402245F3FE4F3983EC8
:10460000D4F3869577956795B795F7959F5FC9F72A
:10461000880F911D9695879597F90895E1E0660FAB
:10462000771F881FBB1F621773078407BA0720F024
:10463000621B730B840BBA0BEE1F88F7E09508958D
:104640000E9427236894B1110C94022408950E94BB
:10465000E72388F09F5798F0B92F9927B751B0F00A
:10466000E1F0660F771F881F991F1AF0BA95C9F7F6
:1046700014C0B13091F00E940124B1E008950C946F
:104680000124672F782F8827B85F39F0B93FCCF322
:10469000869577956795B395D9F73EF49095809573
:1046A000709561957F4F8F4F9F4F0895E89409C093
:1046B00097FB3EF490958095709561957F4F8F4F55
:1046C0009F4F9923A9F0F92F96E9BB279395F6956B
:1046D000879577956795B795F111F8CFFAF4BB0FE9
:1046E00011F460FF1BC06F5F7F4F8F4F9F4F16C04D
:1046F000882311F096E911C0772321F09EE8872FD7
:10470000762F05C0662371F096E8862F70E060E092
:104710002AF09A95660F771F881FDAF7880F96950B
:10472000879597F90895990F0008550FAA0BE0E8AF
:10473000FEEF16161706E807F907C0F01216130663
:10474000E407F50798F0621B730B840B950B39F4A3
:104750000A2661F0232B242B252B21F408950A2609
:1047600009F4A140A6958FEF811D811D089597F949
:104770009F6780E870E060E008959FEF80EC089507
:1047800000240A9416161706180609060895002430
:104790000A9412161306140605060895092E0394AA
:1047A000000C11F4882352F0BB0F40F4BF2B11F41E
:1047B00060FF04C06F5F7F4F8F4F9F4F089557FD7D
:1047C0009058440F551F59F05F3F71F04795880F7F
:1047D00097FB991F61F09F3F79F087950895121616
:1047E00013061406551FF2CF4695F1DF08C01616C2
:1047F00017061806991FF1CF869571056105089473
:104800000895E894BB2766277727CB0197F9089589
:104810000E941B240C94CE230E94C02338F00E94D7
:10482000C72320F0952311F00C94B7230C94BD23DB
:1048300011240C9402240E94DF2370F3959FC1F38E
:10484000950F50E0551F629FF001729FBB27F00D3E
:10485000B11D639FAA27F00DB11DAA1F649F662793
:10486000B00DA11D661F829F2227B00DA11D621FE2
:10487000739FB00DA11D621F839FA00D611D221F9C
:10488000749F3327A00D611D231F849F600D211D80
:10489000822F762F6A2F11249F5750409AF0F1F003
:1048A00088234AF0EE0FFF1FBB1F661F771F881F6C
:1048B00091505040A9F79E3F510580F00C94B723CA
:1048C0000C9402245F3FE4F3983ED4F386957795E9
:1048D0006795B795F795E7959F5FC1F7FE2B880F12
:1048E000911D9695879597F908958F929F92AF9213
:1048F000BF92CF92DF92EF92FF92CF93DF93EC01C2
:10490000688179818A819B81611571058105910595
:1049100021F464E279ED8BE597E02DE133EF41E09E
:1049200050E00E94EE2449015A019B01AC01A7EA24
:10493000B1E40E940D256B017C01ACEEB4EFA50142
:1049400094010E941B25DC01CB018C0D9D1DAE1D29
:10495000BF1DB7FF03C00197A109B04888839983A1
:10496000AA83BB839F77DF91CF91FF90EF90DF9079
:10497000CF90BF90AF909F908F9008950E94752424
:1049800008958BEB93E00E9475240895A0E0B0E0B9
:104990008093BB039093BC03A093BD03B093BE036D
:1049A0000895DC0101C06D9341505040E0F7089537
:1049B000F999FECF92BD81BDF89A992780B50895E7
:1049C000262FF999FECF1FBA92BD81BD20BD0FB62B
:1049D000F894FA9AF99A0FBE01960895052E97FB5E
:1049E0001EF400940E94052557FD07D00E94202543
:1049F00007FC03D04EF40C94052550954095309556
:104A000021953F4F4F4F5F4F08959095809570953A
:104A100061957F4F8F4F9F4F08950E941922A59F48
:104A2000900DB49F900DA49F800D911D11240895A9
:104A3000B7FF0C940D250E940D25821B930B089542
:104A4000A1E21A2EAA1BBB1BFD010DC0AA1FBB1F92
:104A5000EE1FFF1FA217B307E407F50720F0A21B04
:104A6000B30BE40BF50B661F771F881F991F1A9471
:104A700069F760957095809590959B01AC01BD019B
:084A8000CF010895F894FFCF67
:104A8800030100FF00FF000304002A002A002A0097
:104A98002A0001000A0001000900020007000100C5
:104AA80008000300080004000700050008000500CE
:104AB800090005000A0007000900070008000900AE
:104AC80008000900090008000A00010002000100AE
:104AD80003000100040001000100020005000300BA
:104AE80004000200030003000200030001000500A7
:104AF800050005000400050003000500010005008D
:104B08000200060001000800050008000400080073
:104B180003000800020008000100090005000A005F
:104B280004000A0003000A0002000900010008004E
:104B38000700030005000100050001000A0001004C
:104B4800080001000700010009000100060002003A
:104B5800080003000A00030008000300090003001E
:104B6800070003000600020005000200040002001E
:104B7800030002000100030001000200020005001A
:104B880005000500040005000200050003000500FB
:104B980001000600010008000200080003000800E8
:104BA8000400090005000A0004000A0003000A00C6
:104BB80002000900010006000A00060009000600BC
:104BC80007000600060006000800070006000800A7
:104BD8000600080008000700080007000A0008008F
:104BE8000A0001000A000100090002000700010094
:104BF800080003000800040007000500080005007D
:104C0800090005000A00070009000700080009005C
:104C180008000900090008000A000100020001005C
:104C28000300010004000100010002000500030068
:104C38000400020003000300020003000100050055
:104C4800050005000400050003000500010005003B
:104C58000200060001000800050008000400080022
:104C680003000800020008000100090005000A000E
:104C780004000A0003000A000200090001000800FD
:104C88000700030005000100050001000A000100FB
:104C980008000100070001000900010006000200E9
:104CA800080003000A0003000800030009000300CD
:104CB80007000300060002000500020004000200CD
:104CC80003000200010003000100020002000500C9
:104CD80005000500040005000200050003000500AA
:104CE8000100060001000800020008000300080097
:104CF8000400090005000A0004000A0003000A0075
:104D080002000900010006000A000600090006006A
:104D18000700060006000600080007000600080055
:104D28000600080008000700080007000A0008003D
:104D38000A00AAFFFF06160316021601000000006B
:00000001FF
