:100000000C9434000C945A000C945A000C945A002E
:100010000C945A000C945A000C948B180C945A00AF
:100020000C945A000C945A000C945A000C94C31E61
:100030000C945A000C945A000C94271E0C945A00ED
:100040000C945A000C945A000C945A000C945A00C8
:100050000C945A000C945A000C945A000C94E51E0F
:100060000C945A000C945A0011241FBECFEFD8E014
:10007000DEBFCDBF14BE88E10FB6F8948093600058
:10008000109260000FBE13E0A0E0B1E0EAE4F4E5F6
:1000900002C005900D92A63CB107D9F717E0A6EC77
:1000A000B3E001C01D92A637B107E1F70E94B8285E
:1000B0000C94232A0C94000088E294E0089581E0D7
:1000C00090E090931104809310040895CF93DF93F0
:1000D000EC012091120430911304232B71F5CB0114
:1000E0000E94481B8093050110920601888180932D
:1000F000E80489818093E9048A818093EA048B81F2
:100100008093EB048C818093EC048D818093ED04CB
:100110008E818093EE048F818093EF048885809395
:10012000F00489E090E09093E4038093E30381E09E
:1001300090E09093130480931204DF91CF9108957F
:10014000CF93109231040E94C01AC82F0E94C01A87
:100150003C2F20E0A901482BCA010E94B1290E942E
:10016000AC296DEF70E00E94E128019690930D0498
:1001700080930C049091F70380930105109202057F
:1001800010920305109204051092050510920605C1
:100190001092070510920805909309058093280492
:1001A0001092290410922A0410922B0410922C040D
:1001B00010922D0410922E0410922F04909330046C
:1001C00088E294E00E94F6209093330480933204F6
:1001D00080913B0790913C07A0913D07B0913E076D
:1001E0008093000490930104A0930204B09303044D
:1001F000CF91089514161506A4F4FB0120813181D6
:100200002817390791F03296440F551F460F571F94
:1002100005C0219131912817390739F0E417F50706
:10022000C1F720E030E0C901089521E030E0C901C4
:10023000089514161506ACF490E0FB01208131817D
:100240002817390791F03296440F551F460F571F54
:1002500005C0219131912817390739F0E417F507C6
:10026000C1F720E030E0C901089521E030E0C90184
:100270000895161617063CF4FC01680F791F1192B9
:10028000E617F707E1F708951616170654F4FC0170
:10029000660F771F680F791F11921192E617F70703
:1002A000D9F708958091D003882319F0813079F02F
:1002B00008950E94141A60E0809175070E940F1A39
:1002C0008CE00E949F1E81E08093D00308950E94DD
:1002D000141A6091610780E00E940F1A80E30E9467
:1002E0009F1E1092D00308950E94101B90E0089565
:1002F0008F92AF92CF92EF920F93CF93DF93CDB7C0
:10030000DEB78093010560930205409303052093B7
:10031000040500930505E0920605C0920705A0922A
:10032000080580920905809328046093290440936E
:100330002A0420932B0400932C04E0922D04C092F5
:100340002E04A0922F048092300488E294E00E9450
:10035000F6209093330480933204DF91CF910F9174
:10036000EF90CF90AF908F9008958F929F92AF9221
:10037000BF92CF92DF92EF92FF920F931F93CF9392
:10038000DF9380913B0790913C07A0913D07B0918E
:100390003E078C329140A105B10510F580913B07D5
:1003A00090913C07A0913D07B0913E0740910C040D
:1003B00050910D04662757FD6095762F009100043B
:1003C000109101042091020430910304801B910BD1
:1003D000A20BB30B481759076A077B0708F4B4C38D
:1003E0008091120490911304019769F0DF91CF91ED
:1003F0001F910F91FF90EF90DF90CF90BF90AF9043
:100400009F908F9008956091E3037091E4036F30A3
:100410007105F4F42091E8048091C9039091CA0316
:10042000820F911D2091050130910601820F931FCB
:100430009093CA038093C9036F5F7F4F7093E40367
:100440006093E3030E94E1287093CC036093CB0395
:100450003091F0042091F703231738F53093F70318
:1004600080913B0790913C07A0913D07B0913E07DA
:100470008093000490930104A0930204B0930304BA
:1004800080913B0790913C07A0913D07B0913E07BA
:100490008093FC039093FD03A093FE03B093FF03AE
:1004A000383011F40C941A11232F2223F9F0213043
:1004B00009F401C6223009F491C5233009F445C47A
:1004C000243009F4E8C3253009F4CFC4263011F4F0
:1004D0000C94220B273009F43BC3283011F40C9400
:1004E0006C0A109213041092120480CF80913B0783
:1004F00090913C07A0913D07B0913E07893C910542
:10050000A105B10578F080913B0790913C07A0913F
:100510003D07B0913E078C329140A105B10510F422
:100520000C94850B2091EB0430E080910C049091A9
:100530000D042817390709F473C680913B07909181
:100540003C07A0913D07B0913E078D329140A10537
:10055000B10508F409C180913B0790913C07A09137
:100560003D07B0913E0780329340A105B10508F0E8
:10057000FBC06091E804E62FF0E0EE0FFF1FE65E9F
:10058000FA4F80819181009711F40C9449132091C6
:10059000EA0430E028173907C9F16093CD03809150
:1005A000F70390910A0420910C0420930105109206
:1005B00002059093030560930405109205051092BF
:1005C00006051092070510920805809309052093EF
:1005D00028041092290490932A0460932B0410920B
:1005E0002C0410922D0410922E0410922F0480934C
:1005F000300488E294E00E94F620909333048093C4
:1006000032048FE00E949F1E6091E80480910205F1
:100610008617B1F18091F7039091CD0320910A04E0
:1006200030910C043093010560930205209303057B
:100630009093040510920505109206051092070587
:1006400010920805809309053093280460932904CB
:1006500020932A0490932B0410922C0410922D04C2
:1006600010922E0410922F048093300488E294E0BC
:100670000E94F62090933304809332046091E80442
:100680004091FA035091FB031416150614F00C94D4
:100690005D15A0913404B091350470E0A617B7073A
:1006A00011F40C942711E6E3F4E09A01220F331FB2
:1006B0002C5C3B4F07C0819191918617970711F4ED
:1006C0000C942711E217F307B1F780910C04909175
:1006D0000D048617970769F0FA01EE0FFF1FEC5C17
:1006E000FB4F718360834F5F5F4F5093FB034093D9
:1006F000FA03C091E90414161506BCF4A091340461
:10070000B09135046C2F70E06A177B07D9F0E6E3EF
:10071000F4E080E090E005C0219131912617370781
:1007200089F0019684179507BCF3FA01EE0FFF1FBD
:10073000EC5CFB4FC08311824F5F5F4F5093FB0314
:100740004093FA0380910501909106018132910551
:100750005CF020910301309104018217930724F487
:10076000909304018093030180913B0790913C0793
:10077000A0913D07B0913E0781329340A105B1059C
:1007800008F481C080913B0790913C07A0913D0700
:10079000B0913E0780349640A105B10508F073C0C2
:1007A00080900301909004018FE6881691044CF02C
:1007B0008EE690E09093040180930301DEE68D2E97
:1007C000912C0091F0031091F103B090E804101601
:1007D0001106DCF44B2D50E080910A0590910B0539
:1007E0008417950709F44FC0ECE0F5E09801220F5B
:1007F000331F265F3A4F06C0819191918417950768
:1008000009F441C0E217F307B9F7C0910501D0918F
:100810000601BE01882777FD8095982F0E94FD254F
:100820006B017C01B401882777FD8095982F0E9489
:10083000FD2520E030E040EC5FE30E94172420E03B
:1008400030E040E251E40E94BB239B01AC01C701B0
:10085000B6010E94CE2587FF16C0C132D1059CF09B
:10086000C801880F991FFC01E65FFA4FB082118220
:10087000FC01E85EFB4FD183C0830F5F1F4F1093D5
:10088000F1030093F00380913B0790913C07A09106
:100890003D07B0913E07843A9640A105B10508F0A6
:1008A00043C080913B0790913C07A0913D07B091D8
:1008B0003E0781329340A105B105B0F18091F0036C
:1008C0009091F1038830910511F40C9465148530F2
:1008D000910511F40C945C148330910511F40C947F
:1008E0006E148930910514F00C945C1387309105D7
:1008F00011F40C9480148630910511F40C94771443
:100900008430910511F40C9453148130910511F445
:100910000C944A148230910511F40C944114892BE3
:1009200019F485E10E949F1E80913B0790913C073E
:10093000A0913D07B0913E07893E9340A105B105C6
:1009400008F4AEC080913B0790913C07A0913D0711
:10095000B0913E07843A9640A105B10508F0A0C0C9
:100960008091080490910904892B11F40C94F512DC
:10097000C091F003D091F1036091E8041C161D06AC
:10098000CCF4462F50E080910A0590910B05841716
:100990009507E1F0ECE0F5E09E01220F331F265FA2
:1009A0003A4F05C0819191918417950779F0E2172C
:1009B000F307C1F72091E90430E080910C04909195
:1009C0000D042817390711F40C941E1440913B07AD
:1009D00050913C0760913D0770913E078091000463
:1009E00090910104A0910204B09103044E96A11DC0
:1009F000B11D84179507A607B70708F051C080916D
:100A0000DF038F5F90E0BE010E94E1288093DF0347
:100A10002091F703FC01FF27EE0FFF1FE65FFA4F5F
:100A2000908130910C04309301059093020510924F
:100A30000305109204051092050510920605109208
:100A4000070582E480930805209309053093280464
:100A50009093290410922A0410922B0410922C04D3
:100A600010922D0410922E0480932F0420933004B2
:100A700088E294E00E94F62090933304809332043D
:100A800080913B0790913C07A0913D07B0913E07B4
:100A90008093000490930104A0930204B093030494
:100AA00080913B0790913C07A0913D07B0913E0794
:100AB000873D9640A105B105B0F18091F00390917A
:100AC000F103039711F40C9482138091F7031092B1
:100AD0000105109202051092030510920405109270
:100AE00005051092060510920705109208058093DF
:100AF0000905109228041092290410922A041092D9
:100B00002B0410922C0410922D0410922E0410929B
:100B10002F048093300488E294E00E94F6209093A2
:100B200033048093320480913B0790913C07A0915D
:100B30003D07B0913E0789309740A105B10508F007
:100B4000A7C22091F703B3CC8CE00E949F1E48CC33
:100B50001092E7031092E6038091F0039091F10365
:100B6000089711F40C94EB0E8091EA039091EB033B
:100B7000892B31F081E090E09093ED038093EC03BA
:100B80008091EE039091EF03009711F40C941D0EE9
:100B900065E070E00E94E1288130910511F40C9429
:100BA000C6138230910511F40C94CE138330910555
:100BB00009F45EC78430910511F40C943C14892B20
:100BC00011F40C94C11300910004109101042091C0
:100BD00002043091030480913B0790913C07A0915F
:100BE0003D07B0913E07B901A8014C505E4F6F4FD1
:100BF0007F4F481759076A077B0720F58091EC0360
:100C00009091ED03009711F40C942B1165E070E0C6
:100C10000E94E1288130910511F40C94B0148230C7
:100C2000910511F40C94BD148330910511F40C94CA
:100C3000CA148430910511F40C94EB14892B11F42F
:100C40000C948C1480913B0790913C07A0913D0738
:100C5000B0913E07B901A80148515C4F6F4F7F4FDB
:100C6000481759076A077B0708F4ECC780913B07D0
:100C700090913C07A0913D07B0913E070A541C4F4C
:100C80002F4F3F4F081719072A073B0708F411C4D5
:100C90002091F70322CC8091080490910904892BBC
:100CA00009F480C78091EA039091EB03892B39F412
:100CB0008091F0039091F103039709F4DAC58091D4
:100CC000000490910104A0910204B09103044091AA
:100CD0003B0750913C0760913D0770913E078C01A6
:100CE0009D0106501F4F2F4F3F4F04171507260732
:100CF000370708F4E9C740913B0750913C076091E2
:100D00003D0770913E0780579E4FAF4FBF4F8417EE
:100D10009507A607B70708F495C02091F703D3CB32
:100D200083E08093F7031092F20380913B07909148
:100D30003C07A0913D07B0913E078093000490933B
:100D40000104A0930204B0930304109209041092CA
:100D500008048091EA039091EB03892B09F0E9C222
:100D60008091F0039091F103059709F4E2C223E02A
:100D700080E090E0892B39F48091F0039091F103A9
:100D8000059709F09DCB8091E0039091EC033091A1
:100D9000EE0340910C0440930105309302059093BB
:100DA0000305809304051092050510920605109224
:100DB00007051092080520930905409328043093F5
:100DC000290490932A0480932B0410922C041092EF
:100DD0002D0410922E0410922F042093300488E2E8
:100DE00094E00E94F6209093330480933204809123
:100DF000EA039091EB03892B11F12091F0033091DC
:100E0000F1034091E80450E012161306C4F48091F7
:100E10000A0590910B054817590709F42DC6ECE017
:100E2000F5E0220F331F265F3A4F06C08191919162
:100E30004817590709F420C6E217F307B9F72091BC
:100E4000F7033ECB85E08093F70380913B079091B9
:100E50003C07A0913D07B0913E078093000490931A
:100E60000104A0930204B093030440913B07509106
:100E70003C0760913D0770913E078091FC03909183
:100E8000FD03A091FE03B091FF038896A11DB11D43
:100E900084179507A607B70718F580913B0790912F
:100EA0003C07A0913D07B0913E078093FC039093CF
:100EB000FD03A093FE03B093FF038091E60390919E
:100EC000E70301969093E7038093E6032091E00304
:100ED00030E08217930709F402C580E00E949F1E4C
:100EE0008091F0039091F103039711F40C94211079
:100EF0003091EC042091EA044091EB04332309F48F
:100F000012C1222309F40FC1442309F40CC1241790
:100F100008F009C1431708F006C12093C8034093A5
:100F2000C7033093C603942F822F891711F40C94B2
:100F30006C138091C603891711F40C94651390917A
:100F4000C803981711F40C9473132091C703281742
:100F500069F0291759F0891711F40C94F2129923AA
:100F600029F0222319F081110C9402153091F70316
:100F700040910C04409301051092020590930305E3
:100F8000209304058093050510920605109207052D
:100F90001092080530930905409328041092290403
:100FA00090932A0420932B0480932C0410922D04F8
:100FB00010922E0410922F043093300488E294E0B3
:100FC0000E94F620909333048093320480910001B4
:100FD000813009F424C32091F70378CA8091F0038B
:100FE0009091F103089709F4A1C78091EA039091C9
:100FF000EB03019709F4D4C7809100049091010498
:10100000A0910204B091030440913B0750913C072A
:1010100060913D0770913E078C019D010A561F4F5C
:101020002F4F3F4F041715072607370740F420912D
:10103000F0033091F1032530310509F4B6C4409135
:101040003B0750913C0760913D0770913E078C0132
:101050009D0100571E4F2F4F3F4F041715072607BE
:10106000370708F47BC640913B0750913C076091DD
:101070003D0770913E078C509E4FAF4FBF4F841776
:101080009507A607B70708F44BCE2091F70315CABA
:1010900081E08093F70380913B0790913C07A091FA
:1010A0003D07B0913E078093000490930104A09304
:1010B0000204B09303042091E8042093F20380918A
:1010C000F0039091F103039711F40C94D1102111C6
:1010D0000C948E1040913B0750913C0760913D0766
:1010E00070913E078091000490910104A091020448
:1010F000B091030488539F4FAF4FBF4F841795079C
:10110000A607B70738F48091F0039091F103039795
:1011100009F4E9C38091D403813011F40C94BC1319
:101120002091F703C7C95091E904511139C3809147
:10113000C80321112FC59091C703442391F048178C
:1011400011F40C947F1391110CC04093C7034817FE
:1011500010F00C94D3138093C7032093C803982FE7
:10116000822F332309F4D8C4381709F4D5C4911158
:10117000D3C43093C703381708F0CDC48093C70396
:101180002093C803982F822F442321F1481711F48C
:101190000C947C13491711F40C94CB132091C603C3
:1011A000211118C04093C603481710F00C948914FD
:1011B0009093C6038093C7034093C803292F982FA9
:1011C000842F821738F4291728F49093C60340938C
:1011D000C703942F332309F4A8CE381709F4A5CEFA
:1011E000391709F4A6CE2091C60321119ECE309363
:1011F000C603381748F49093C6038093C7034093FF
:10120000C803392F982F842F831708F08ECE3917F3
:1012100008F08BCE9093C6034093C703942F85CEDE
:1012200080913B0790913C07A0913D07B0913E070C
:1012300080329340A105B10508F07FC98091FA037F
:101240009091FB03FC01EE0FFF1FEC5CFB4F318321
:10125000208301969093FB038093FA038091CB0344
:101260009091CC030E94B1290E94AC296DEF70E0EF
:101270000E94E128019690930D0480930C04CDEF19
:10128000D0E04091FA035091FB0314161506CCF4FC
:10129000992720913404309135042817390709F42F
:1012A00061C4E6E3F4E0440F551F4C5C5B4F06C09D
:1012B000219131912817390709F454C4E417F5072F
:1012C000B9F781E00E949F1E8091F7039091CD03B2
:1012D00020910A0430910C0430930105109202050C
:1012E00020930305909304051092050510920605BE
:1012F0001092070510920805809309053093280481
:101300001092290420932A0490932B0410922C0409
:1013100010922D0410922E0410922F04809330040A
:1013200088E294E00E94F620909333048093320484
:1013300004C99091E0032091EC033091EE034091B9
:101340000C0440930105309302052093030590930C
:1013500004051092050510920605109207051092DB
:10136000080583E0809309054093280430932904FD
:1013700020932A0490932B0410922C0410922D0495
:1013800010922E0410922F048093300488E294E08F
:101390000E94F62090933304809332048091F003EE
:1013A0009091F103059709F07DC08091EC03909135
:1013B000ED03029709F442C08091E80490E0209187
:1013C0000A0530910B0582179307E9F020910C056F
:1013D00030910D0582179307B1F020910E053091E1
:1013E0000F058217930779F02091100530911105B0
:1013F0008217930741F0209112053091130582174F
:10140000930709F04FC08091E00381114BC0809198
:10141000EB04882309F446C08F5F8093E0038FE2DA
:101420000E949F1E8091F0039091F1030597D1F5E2
:101430008091EC039091ED030297A1F58091E8046F
:1014400090E020910A0530910B0582179307E1F097
:1014500020910C0530910D0582179307A9F020917A
:101460000E0530910F058217930771F0209110053A
:10147000309111058217930739F0209112053091B0
:1014800013058217930771F48091E00381110AC05C
:101490008091EB04833030F08F5F8093E00383E032
:1014A0000E949F1E8091EA039091EB032091F70325
:1014B00061CC88E08093F70380913B0790913C07D3
:1014C000A0913D07B0913E078093FC039093FD03EC
:1014D000A093FE03B093FF038091E60390910C0468
:1014E0009093010580930205109203051092040564
:1014F0001092050510920605109207051092080536
:1015000010920905909328048093290410922A04CC
:1015100010922B0410922C0410922D0410922E0481
:1015200010922F041092300488E294E00E94F6207A
:1015300090933304809332048091E90490E02091E9
:10154000E6033091E703281739070CF478C180913E
:101550003B0790913C07A0913D07B0913E07409119
:10156000F3035091F403662757FD6095762F480FDB
:10157000591F6A1F7B1F8091FC039091FD03A0916E
:10158000FE03B091FF038E579F4FAF4FBF4F84179D
:101590009507A607B70708F42FC18091E60390913D
:1015A000E70360910801709109010E94E1288130F0
:1015B000910509F4C1C78230910509F4E8C7833069
:1015C000910511F00C94F01340910E0150910F0110
:1015D000141615060CF0D3C26091EE037091EF0360
:1015E000440F551FA091EC03B091ED03C091D303BC
:1015F000EAEBF1E080E090E006C0029634968417B2
:1016000095070CF0BAC22081318126173707A9F758
:10161000228133812A173B0781F7C1E0EECF86E0B4
:101620008093F70380913B0790913C07A0913D0781
:10163000B0913E078093000490930104A0930204AC
:10164000B09303049091E8032091E9033091EC03F7
:101650004091EE0350910C04509301054093020514
:10166000309303051092040510920505209306059A
:10167000909307051092080586E080930905509322
:1016800028044093290430932A0410922B041092CA
:101690002C0420932D0490932E0410922F048093F9
:1016A000300488E294E00E94F62090933304809303
:1016B00032048091ED04882309F49BC08093E903F0
:1016C0009091EE0491119093E803811132C64091FC
:1016D0003B0750913C0760913D0770913E07809118
:1016E000000490910104A0910204B091030480577A
:1016F0009E4FAF4FBF4F84179507A607B70708F453
:10170000B7C52091F7030C946A028091CE03811132
:101710000C9492028091CB039091CC030E94B1294A
:101720000E94AC296DEF70E00E94E1280196909331
:101730000B0480930A0491E09093CE039091F703F9
:1017400020910C042093010510920205809303055B
:1017500010920405109205051092060510920705D7
:1017600010920805909309052093280410922904EB
:1017700080932A0410922B0410922C0410922D04B2
:1017800010922E0410922F049093300488E294E07B
:101790000E94F62090933304809332040C949202BA
:1017A0008091E6039091E70303974CF08091C80382
:1017B000581709F4BECC9091C6039111BACC50933E
:1017C000C803852F222309F4B6CC9091C7032817AC
:1017D00011F40C94FF159111B0CC2093C703281776
:1017E00008F0E4C78093C7032093C803982F822F83
:1017F000A4CC8091E90364CF80E10E949F1E1092E7
:10180000F4031092F30380913B0790913C07A09161
:101810003D07B0913E078093FC039093FD03A09396
:10182000FE03B093FF038091E6039091E7030196D6
:101830009093E7038093E6031092D303B2CE909384
:10184000E7038093E60380913B0790913C07A091CA
:101850003D07B0913E078093FC039093FD03A09356
:10186000FE03B093FF0380E10E949F1E1092D303FA
:101870006ECE8091E80490E020910A0530910B052E
:101880008217930779F020910C0530910D0582178E
:10189000930741F020910E0530910F0582179307B1
:1018A00009F00DCA8091EB04833008F408CA9091C6
:1018B000DD0391110C9474158093DD032091DC03FA
:1018C000222309F4FCC9982F822F891710F00C9459
:1018D00099158093DB038F5F8093E003F0C98FE35A
:1018E0000E949F1EFDCAC0910101D0910201C1302A
:1018F000D10509F00FCC8AE20E949F1ED093EB0322
:10190000C093EA03D093EF03C093EE03D093ED03AB
:10191000C093EC0381E08093E00341E031E010925A
:10192000D40322E02093F70380913B0790913C077A
:10193000A0913D07B0913E0780930004909301046D
:10194000A0930204B09303041092F20380910C045C
:10195000809301054093020530930305109204051E
:1019600010920505109206051092070510920805C1
:1019700020930905809328044093290430932A0476
:1019800010922B0410922C0410922D0410922E040D
:1019900010922F042093300488E294E00E94F620F5
:1019A0009093330480933204BBCB2091E90421301F
:1019B00009F045CB2091EA04213009F040CB609139
:1019C000EB04662309F43BCB4091EE035091EF0307
:1019D000452B09F034CB2091E80430E040910A0512
:1019E00050910B0524173507E9F040910C055091F3
:1019F0000D0524173507B1F040910E0550910F05E4
:101A00002417350779F040911005509111052417DE
:101A1000350741F040911205509113052417350701
:101A200009F00DCB262F30E080910C0490910D042D
:101A30002817390711F40C94E21582E090E0909396
:101A4000EF038093EE0381E090E09093ED038093A9
:101A5000EC0382E08093E00384E30E949F1E809168
:101A6000000490910104A0910204B0910304E7CA1C
:101A700083E30E949F1EA7C88091EB04833008F483
:101A8000DEC98093DE0324E02093F70380913B07B7
:101A900090913C07A0913D07B0913E0780930004D0
:101AA00090930104A0930204B09303048091E00397
:101AB0009091EC033091EE0340910C0440930105AA
:101AC0003093020590930305809304051092050559
:101AD000109206051092070510920805209309053B
:101AE000409328043093290490932A0480932B0474
:101AF00010922C0410922D0410922E0410922F0498
:101B00002093300488E294E00E94F62090933304FE
:101B10008093320494C9932F222309F435CB2817DC
:101B200009F432CB291709F42FCB5091C603511178
:101B30002BCB2093C603281748F49093C6038093B9
:101B4000C7034093C803292F982F842F821708F0CA
:101B50001BCB291708F018CB9093C6034093C703FB
:101B6000942F12CB0E94AC29BE010E94E12801965D
:101B700090930D0480930C0484CBC093D303809185
:101B8000D303882311F40C9471028FE00E949F1EEE
:101B90000C947102811119CE2093C8039091C70350
:101BA000822FCBCA80913B0790913C07A0913D07C3
:101BB000B0913E078093000490930104A093020427
:101BC000B09303048091E0039091EC033091EE0315
:101BD00040910C0440930105309302059093030556
:101BE00080930405109205051092060510920705D2
:101BF0001092080520930905409328043093290486
:101C000090932A0480932B0410922C0410922D049C
:101C100010922E0410922F042093300488E294E056
:101C20000E94F620909333048093320481E090E088
:101C3000909309048093080435C883E00E949F1E96
:101C40000C94E30581E090E09093E7038093E60332
:101C500090910C049093010581E08093020510920D
:101C600003051092040510920505109206051092C6
:101C70000705109208051092090590932804809397
:101C8000290410922A0410922B0410922C04109212
:101C90002D0410922E0410922F041092300488E22A
:101CA00094E00E94F620909333048093320483E002
:101CB0000E949F1E009100041091010420910204D3
:101CC000309103040C9436068091F70390910C0434
:101CD00090930105109202051092030510920405DD
:101CE000109205051092060510920705109208053E
:101CF00080930905909328041092290410922A04D5
:101D000010922B0410922C0410922D0410922E0489
:101D100010922F048093300488E294E00E94F62011
:101D2000909333048093320480E00E949F1E1092AF
:101D3000DD031092DC031092DB038091F00390919D
:101D4000F103039709F435C58091000490910104D3
:101D5000A0910204B09103040C947B068091F703D8
:101D60009091EC032091EE0330910C043093010527
:101D70002093020590930305109204051092050527
:101D80001092060510920705109208058093090528
:101D9000309328042093290490932A0410922B0452
:101DA00010922C0410922D0410922E0410922F04E5
:101DB0008093300488E294E00E94F62090933304EC
:101DC000809332048091000490910104A091020458
:101DD000B091030448C98091E80490E020910A057D
:101DE00030910B058217930709F415C320910C0558
:101DF00030910D058217930709F40DC320910E054C
:101E000030910F058217930709F405C3209110053F
:101E1000309111058217930709F4FDC22091120534
:101E2000309113058217930709F4F5C22091140528
:101E3000309115058217930709F4EDC2209116051C
:101E4000309117058217930709F4E5C22091180510
:101E5000309119058217930709F4DDC29091DA03D6
:101E6000992351F14091D903442331F18091D80352
:101E7000882311F1941750F4981740F4292F30E07B
:101E80002F5F3F4F3093EF032093EE03491750F439
:101E9000481740F4242F30E02F5F3F4F3093EF037B
:101EA0002093EE03891740F4841730F490E00196F4
:101EB0009093EF038093EE039091D703992311F44D
:101EC0000C94B4054091D603442311F40C94B4054A
:101ED0008091D503882311F40C94B405941750F421
:101EE000981740F4292F30E02F5F3F4F3093ED03D8
:101EF0002093EC03491750F4481740F4242F30E0A6
:101F00002F5F3F4F3093ED032093EC03891710F0C0
:101F10000C94B405841710F00C94B40590E001966D
:101F20009093ED038093EC030C94B4058091E90445
:101F3000813009F44AC48091EE039091EF039091AF
:101F4000EC0330910C0430930105809302059093CB
:101F500003051092040510920505109206051092D3
:101F600007051092080520930905309328048093F3
:101F7000290490932A0410922B0410922C0410929E
:101F80002D0410922E0410922F042093300488E226
:101F900094E00E94F620909333048093320425C885
:101FA0008091E904823009F027C88091EA048230E8
:101FB00009F022C88091F20381111EC82091F0031C
:101FC0003091F1034091E80450E0121613060CF032
:101FD00013C880910A0590910B054817590781F0A5
:101FE000ECE0F5E0220F331F265F3A4FE217F307CC
:101FF00011F40C94FC078191919148175907B1F79E
:102000008CE30E949F1E81E08093F20320910A05D9
:1020100030910B058091E80490E08217930709F452
:10202000BFC58090F703A12CC12CE12C00E04091AA
:10203000EC036091EE0380910C040E9478010C94F3
:10204000FC078091EA039091EB03892B11F00C942B
:1020500078078091F7039091E00320910C0420937E
:102060000105909302051092030510920405109249
:102070000505109206051092070510920805809339
:102080000905209328049093290410922A041092A1
:102090002B0410922C0410922D0410922E041092F6
:1020A0002F048093300488E294E00E94F6209093FD
:1020B0003304809332049091EA048091EB049817E2
:1020C00011F40C94E6072091EC04821711F40C949F
:1020D000E607921711F40C94E607992311F40C9477
:1020E000E607882311F40C94E607222311F40C94DC
:1020F000E6072091E003921709F491C5821709F4CD
:1021000085C58091EC0482130C94E60783E08093EC
:10211000000180E30E949F1E0C94E60780E00E946D
:102120009F1E909101058091F203992311F0891768
:1021300070F59091F70380930105109202051092BB
:1021400003051092040510920505109206051092E1
:1021500007051092080590930905809328041092B2
:10216000290410922A0410922B0410922C0410922D
:102170002D0410922E0410922F049093300488E2C4
:1021800094E00E94F620909333048093320480916F
:10219000F0039091F103039711F00C946A082091D9
:1021A000F203222311F40C946A082091E80430E031
:1021B00080910C0490910D042817390714F00C94A9
:1021C0006A0880E00E949F1E109202011092010195
:1021D0008091F70390910C049093010510920205F1
:1021E0001092030510920405109205051092060541
:1021F0001092070510920805809309059093280412
:102200001092290410922A0410922B0410922C048C
:1022100010922D0410922E0410922F0480933004FB
:1022200088E294E00E94F620909333048093320475
:102230000C946A081092E9041092E7031092E603E6
:1022400083E00E949F1E2091F7030C945502C091D9
:10225000E9040C94820383E00E949F1E0091000415
:102260001091010420910204309103040C94220681
:1022700027E02093F70380913B0790913C07A091C2
:102280003D07B0913E078093000490930104A09312
:102290000204B093030480913B0790913C07A09106
:1022A0003D07B0913E078093FC039093FD03A093FC
:1022B000FE03B093FF038091E8039091E90330910E
:1022C000EC034091EE0350910C04509301054093B0
:1022D00002053093030510920405109205059093B2
:1022E0000605809307051092080520930905509371
:1022F00028044093290430932A0410922B0410924E
:102300002C0490932D0480932E0410922F0420937C
:10231000300488E294E00E94F62090933304809386
:1023200032041092E7031092E60380E00E949F1EA1
:10233000E8C98DE10E949F1E8091E9039091000100
:10234000923009F4EFC0882309F4C1C98091E803F1
:10235000882309F4BCC983E00E949F1E809100017C
:10236000813009F4ADC3823009F4E3C2833009F04F
:10237000F2C28091F0039091F1038330910509F44A
:10238000CAC3059709F0A3C98091EE039091EF03AA
:10239000892B09F09CC98091EC039091ED03892B66
:1023A00009F095C92091E0038091E903281708F00E
:1023B000C5C32093EE031092EF0341E050E0509329
:1023C000ED034093EC03E091E80330E090E04E2F02
:1023D00050E0BA01680F791F62507109261737075C
:1023E0000CF0C8C3880F991F840F951F04972817F6
:1023F00039070CF46CC961E070E07093EF036093EF
:10240000EE03821B930B840F951F01979093ED03AE
:102410008093EC035CC98091E904882309F41ECD04
:102420008093F2039091DA039111CBC28093DA0387
:102430009091E8032091E9033091EC034091EE0381
:1024400050910C045093010540930205309303050D
:102450001092040510920505209306059093070538
:102460001092080587E08093090550932804409353
:10247000290430932A0410922B0410922C042093E8
:102480002D0490932E0410922F048093300488E240
:1024900094E00E94F620909333048093320480915C
:1024A000EA048093F2039091D703911180C2809344
:1024B000D7038091F7039091E8032091E9033091CD
:1024C000EC034091EE0350910C04509301054093AE
:1024D0000205309303051092040510920505209320
:1024E00006059093070510920805809309055093FF
:1024F00028044093290430932A0410922B0410924C
:102500002C0420932D0490932E0410922F0480937A
:10251000300488E294E00E94F62090933304809384
:1025200032049CCC882309F4D2C89091E0039E5FCA
:10253000981B9093E8030ACF40910A0150910B0138
:10254000141615060CF01BCB6091EE037091EF038F
:10255000440F551FA091EC03B091ED03C091D3033C
:10256000EAE0F3E080E090E006C00296349684173B
:1025700095070CF002CB2081318126173707A9F788
:10258000228133812A173B0781F7C1E0EECF4091CA
:102590000C0150910D01141615060CF0F0CA609153
:1025A000EE037091EF03440F551FA091EC03B0911F
:1025B000ED03C091D303E2E6F2E080E090E006C0D4
:1025C00002963496841795070CF0D7CA2081318182
:1025D00026173707A9F7228133812A173B0781F78E
:1025E000C1E0EECF982F0C94B6078091F703E091ED
:1025F000DF03F0E0EE0FFF1FE65FFA4F208130911E
:102600000C043093010520930205109203051092EB
:10261000040510920505109206051092070592E434
:10262000909308058093090530932804209329048A
:1026300010922A0410922B0410922C0410922D0454
:1026400010922E0490932F048093300488E294E03B
:102650000E94F620909333048093320481E090E04E
:10266000909309048093080480913B0790913C0764
:10267000A0913D07B0913E07809300049093010420
:10268000A0930204B093030480E00E949F1E0C9468
:10269000B8048091EA048083118287E20E949F1E21
:1026A0006091E804E62FF0E0EE0FFF1FE65EFA4FC0
:1026B000808191810C94C70280E00E949F1E8091CE
:1026C000F0039091F1030C9476048CE00E949F1E1D
:1026D0008091C6030C949F0783E00E949F1E9091F7
:1026E000C7030C94990780E30E949F1E8091C60344
:1026F0009091C8030C94A507842F0C94EA08842FAA
:102700000C94B1088091F70390910C04909301050B
:10271000109202051092030510920405109205050F
:10272000109206051092070510920805809309057E
:10273000909328041092290410922A0410922B04DA
:1027400010922C0410922D0410922E0410922F043B
:102750008093300488E294E00E94F6209093330442
:10276000809332048091F0039091F103039711F468
:102770000C9493050C9465053091EC034091EE03A5
:10278000CEC88FE30E949F1E0C94E3058CE00E944C
:102790009F1E0C94E305942F0C94EA0880E30E949A
:1027A0009F1E0C94E305942F0C94B108922F0C9467
:1027B0009D088091EA039091EB03892B09F0C4CA2C
:1027C0008091E0038093DD03BFCA8091EA048130E9
:1027D00009F42DC18091EE039091EF0322E0AFCB7D
:1027E000892B09F0CCC940911001509111011416A8
:1027F00015060CF0C4C96091EE037091EF03440F0D
:10280000551FA091EC03B091ED03C091D303E2E119
:10281000F1E080E090E006C00296349684179507B8
:102820000CF0ABC92081318126173707A9F7228127
:1028300033812A173B0781F7C1E0EECF8091EF0487
:10284000823411F00C94E604CE01880F991FFC012C
:10285000E65FFA4F60831182FC01E85EFB4F209136
:10286000050130910601318320832196D093F10335
:10287000C093F0030C94E6048FE00E949F1E0C941A
:10288000E3058FE30E949F1E8091F0039091F10376
:102890000C948F048AE20E949F1E8091F003909115
:1028A000F1030C948A0483E30E949F1E8091F0033D
:1028B0009091F1030C94850480E30E949F1E809107
:1028C000F0039091F1030C946C048CE00E949F1E25
:1028D0008091F0039091F1030C94670483E00E94CF
:1028E0009F1E8091F0039091F1030C9471048CE38E
:1028F0000E949F1E8091F0039091F1030C9480043C
:102900008FE00E949F1E8091F0039091F1030C9440
:102910007B04242F0C94E1088FE30E949F1E0091FA
:1029200000041091010420910204309103040C94DE
:1029300022068091EA039091EB03892B61F4809148
:10294000E9038093EE031092EF03E091E803E09334
:10295000EC031092ED038091F0039091F10311CDFF
:102960008CE00E949F1E00910004109101042091B0
:102970000204309103040C94220680E30E949F1EFF
:10298000009100041091010420910204309103048D
:102990000C94220683E30E949F1E00910004109174
:1029A000010420910204309103040C94220689173B
:1029B00009F47FCD9091D60391111AC08093D6036C
:1029C00078CD891709F434CD9091D903911125C0A0
:1029D0008093D9032DCD8FE00E949F1E00910004AB
:1029E0001091010420910204309103040C942206FA
:1029F000891709F45ECD9091D50391115ACD80933A
:102A0000D50357CD8FE30E949F1E8091C60320916E
:102A1000C7039091C8030C94B607891709F408CD31
:102A20009091D803911104CD8093D80301CD80916A
:102A3000EE039091EF030097F1F52091E80430E068
:102A400040910A0550910B052417350709F453C02E
:102A500040910C0550910D052417350709F44BC022
:102A600040910E0550910F052417350709F443C016
:102A7000409110055091110524173507E1F140915F
:102A800012055091130524173507A9F1409114053B
:102A9000509115052417350771F140911605509195
:102AA00017052417350739F140911805509119057C
:102AB0002417350701F122E042CA70E00C94650347
:102AC0008091EA039091EB03892B09F044CF809128
:102AD000E9038093EE031092EF0381E090E090937E
:102AE000ED038093EC0337CF891709F48BC08093F3
:102AF000DC030C94650C8CE00E949F1E82E090E049
:102B00009093EF038093EE039093ED038093EC0397
:102B10002091F70314CA81E090E09093EF03809333
:102B2000EE038091E8038093EC031092ED030C9484
:102B3000670B9093DB03892F0C946B0C30E0E091D2
:102B4000E8034E2F50E090E0BA01680F791F625001
:102B500071092617370774F49093EF038093EE03FF
:102B6000A901481B590B4E5F5F4F5093ED034093F3
:102B7000EC032DCC880F991F840F951F04972817FD
:102B800039070CF038CC821B930B01969093EF031E
:102B90008093EE035093ED034093EC030C94670B8A
:102BA0008090F703A12CC12CE12C00E020910C05B2
:102BB0004091EC036091EE0380910C040E94780137
:102BC0000C94FC0781E090E09093EF038093EE0378
:102BD00082E090E09093ED038093EC0387E00E9405
:102BE0009F1E2091EB0430E080910C0490910D0425
:102BF0002817390711F40C942F0D0C941D0D822FFA
:102C00000C949D082091DC030C94600C82E080936E
:102C100000018CE00E949F1E2091E00372CA81E0B7
:102C20008093000183E00E949F1E2091E003209387
:102C3000E9038091EB0462CA089580E090E0089572
:102C40000895CF93F89414B817B81AB815B818B8EF
:102C50001BB8529A5A9A14BC85E085BD8FEF87BD88
:102C600022E020936E0010928000109281008FE885
:102C70009BE0909389008093880020936F00539885
:102C8000239881EA8093B0002093B1001092B400A1
:102C90001092B3008BE080BF83E080937F0086E0DA
:102CA00080937C0083E880937A0080917A0080642E
:102CB00080937A0080917A0086FDFCCF10927C0090
:102CC00083EA80937A0081E080937B0081E090E04A
:102CD0000E94BC298F3F11F08093660010923F073D
:102CE000C1E0C0931807C0935C071092360710929A
:102CF000700780E990E00E94BC298093350780919D
:102D00003507887311F0C093350710926007109251
:102D10005F078FEF90E090935E0780935D071092BE
:102D20003B0710923C0710923D0710923E0781E04E
:102D30008093160482E49FE090936F0780936E0760
:102D400080EB90E00E94BC29C82F81EB90E00E94AC
:102D5000BC29382F20E02C2B309372072093710769
:102D600085E090E00E94BC298093750789E090E09F
:102D70000E94BC29809361078CE090E00E94BC29EE
:102D80008093730784E190E00E94BC2980937407CC
:102D900080E290E00E94BC29C82F81E290E00E946E
:102DA000BC293C2F20E0282B30934107209340077B
:102DB00080E590E00E94BC29C82F81E590E00E9448
:102DC000BC293C2F20E0282B30931A0720931907A9
:102DD00082E290E00E94BC29C82F83E290E00E942A
:102DE000BC293C2F20E0282B309343072093420737
:102DF00082E590E00E94BC29C82F83E590E00E9404
:102E0000BC293C2F20E0282B30931C0720931B0764
:102E100084E290E00E94BC29C82F85E290E00E94E5
:102E2000BC293C2F20E0282B3093450720934407F2
:102E300084E590E00E94BC29C82F85E590E00E94BF
:102E4000BC293C2F20E0282B30931E0720931D0720
:102E500086E290E00E94BC29C82F87E290E00E94A1
:102E6000BC293C2F20E0282B3093470720934607AE
:102E700086E590E00E94BC29C82F87E590E00E947B
:102E8000BC293C2F20E0282B3093200720931F07DC
:102E900088E290E00E94BC29C82F89E290E00E945D
:102EA000BC293C2F20E0282B30934907209348076A
:102EB00088E590E00E94BC29C82F89E590E00E9437
:102EC000BC293C2F20E0282B309322072093210798
:102ED0008AE290E00E94BC29C82F8BE290E00E9419
:102EE000BC293C2F20E0282B30934B0720934A0726
:102EF0008AE590E00E94BC29C82F8BE590E00E94F3
:102F0000BC293C2F20E0282B309324072093230753
:102F10008CE290E00E94BC29C82F8DE290E00E94D4
:102F2000BC293C2F20E0282B30934D0720934C07E1
:102F30008CE590E00E94BC29C82F8DE590E00E94AE
:102F4000BC293C2F20E0282B30932607209325070F
:102F50008EE290E00E94BC29C82F8FE290E00E9490
:102F6000BC293C2F20E0282B30934F0720934E079D
:102F70008EE590E00E94BC29C82F8FE590E00E946A
:102F8000BC293C2F20E0282B3093280720932707CB
:102F900080E390E00E94BC29C82F81E390E00E946A
:102FA000BC293C2F20E0282B309351072093500759
:102FB00080E690E00E94BC29C82F81E690E00E9444
:102FC000BC293C2F20E0282B30932A072093290787
:102FD00082E390E00E94BC29C82F83E390E00E9426
:102FE000BC293C2F20E0282B309353072093520715
:102FF00082E690E00E94BC29C82F83E690E00E9400
:10300000BC293C2F20E0282B30932C0720932B0742
:1030100084E390E00E94BC29C82F85E390E00E94E1
:10302000BC293C2F20E0282B3093550720935407D0
:1030300084E690E00E94BC29C82F85E690E00E94BB
:10304000BC293C2F20E0282B30932E0720932D07FE
:1030500086E390E00E94BC29C82F87E390E00E949D
:10306000BC293C2F20E0282B30935707209356078C
:1030700086E690E00E94BC29C82F87E690E00E9477
:10308000BC293C2F20E0282B3093300720932F07BA
:1030900088E390E00E94BC29C82F89E390E00E9459
:1030A000BC293C2F20E0282B309359072093580748
:1030B00088E690E00E94BC29C82F89E690E00E9433
:1030C000BC293C2F20E0282B309332072093310776
:1030D0008AE390E00E94BC29C82F8BE390E00E9415
:1030E000BC293C2F20E0282B30935B0720935A0704
:1030F0008AE690E00E94BC29C82F8BE690E00E94EF
:10310000BC293C2F20E0282B309334072093330731
:103110007894CF9108951F920F920FB60F921124B9
:103120008F9388E10FB6F89480936000109260004E
:103130000FBE8F910F900FBE0F901F9018957C01BE
:10314000EB01D12C88248A9486E0982E93E8A92E4E
:1031500008E110E029E2B22E34E0C32E809116047B
:103160008330B9F1843008F03EC0813009F4BEC02C
:1031700008F44BC080913F07811100C1F8949092F0
:103180007C00A0927A0080917A00806480937A001B
:1031900080917A0086FDFCCF2091780030917900F3
:1031A00078942B3A92E039070CF002C12938E2E01A
:1031B0003E070CF004C1273632400CF4DFC0559AAC
:1031C000549A3B9A3A9A3D983C98809116048330E1
:1031D00049F6DD2009F4D9C0C0921604DD24D39449
:1031E000FE010995BBCF853009F462C0C8F3863073
:1031F00009F0B4CF80911404811194C01092B300EF
:103200001092B40010921504A9CFF89480B7877F6C
:1032100080BF80917A008F7780937A0014B817B8B6
:103220001AB815B818B81BB80FB6F894A89500933B
:1032300060000FBEB0926000809160008064809357
:10324000600083B7817F846083BFF89483B7816017
:1032500083BF7894889583B78E7F83BF78941092CC
:103260003F07529A5A9A80917A00806880937A0038
:1032700087E592E00197F1F700C0000080B7886110
:1032800080BF559A549A3B9A3A9A3D9A3C9AEFE1FC
:10329000FEE43197F1F700C0000080913F078111F3
:1032A00077C0559854983B983A983D983C9856CF9B
:1032B0004899F7CF559A54983B983A983D983C983E
:1032C0008FEC97E00197F1F700C0000055985498F3
:1032D0003B983A983D983C989FEFE1EEF4E091508E
:1032E000E040F040E1F700C0000038CF5598549816
:1032F0003B9A3A9A3D983C98EFECF7E03197F1F71A
:1033000000C00000559854983B983A983D983C98D6
:10331000FFEF21EE84E0F15020408040E1F700C053
:1033200000001CCF9091140480911504981709F4A3
:1033300015CF80911404809315048091140481307A
:1033400009F444C0809114041092B3008092B40038
:10335000823009F44CC08092B3008092B4008FE2B6
:1033600095E70197F1F700C00000809174079091F4
:1033700073079093B3008093B400F0CE559A549A9B
:103380003B983A983D983C98E9CEF701099524CFAF
:10339000559A549A3B983A983D983C98FFEF20E70D
:1033A00082E0F15020408040E1F700C0000079CF7A
:1033B000559854983B9A3A9A3D983C98CFCE559858
:1033C00054983B983A983D9A3C9AC8CE8092B30064
:1033D0001092B4008FE295E70197F1F700C000006A
:1033E000809175078093B3001092B400B7CEEFE2DE
:1033F000F5E73197F1F700C0000080916107109266
:10340000B3008093B400AACE07C0EFECF7E0319789
:10341000F1F700C0000001970097B9F70895809375
:10342000B3006093B40008958FEF8093B30080934E
:10343000B4008FEC97E00197F1F700C000008FEC2B
:1034400097E00197F1F700C000008FEC97E001973B
:10345000F1F700C000008FEC97E00197F1F700C092
:1034600000008FEC97E00197F1F700C000008FECAF
:1034700097E00197F1F700C000008FEC97E001970B
:10348000F1F700C000008FEC97E00197F1F700C062
:1034900000008FEC97E00197F1F700C000008FEC7F
:1034A00097E00197F1F700C000008FEC97E00197DB
:1034B000F1F700C000008FEC97E00197F1F700C032
:1034C00000008FEC97E00197F1F700C000008FEC4F
:1034D00097E00197F1F700C000008FEC97E00197AB
:1034E000F1F700C00000089580913F0781111FC0CF
:1034F000F89487E080937C0083E880937A00809141
:103500007A00806480937A0080917A0086FDFCCFF7
:10351000209178003091790010927C0083EA8093AA
:103520007A0081E080937B007894C90108952FEFA1
:103530003FEFFBCF80913F0781111FC0F89488ECCB
:1035400080937C0087E880937A0080917A00806481
:1035500080937A0080917A0086FDFCCF20917800DC
:103560003091790010927C0083EA80937A0081E0A8
:1035700080937B007894C90108952FEF3FEFFBCF34
:103580001F93CF93DF9360E070E080E013EAD1E017
:10359000C6E0B3E8E1E0F0E040E850E0F894C09322
:1035A0007C00B0937A0090917A00906490937A00B6
:1035B00090917A0096FDFCCF2091780030917900AF
:1035C000A22FA17090917A00906490937A009091CC
:1035D0007A0096FDFCCF209178003091790010920E
:1035E0007C0010937A00D0937B007894217033276D
:1035F000A21303C04150510989F6AA2339F09F0153
:10360000062E01C0220F0A94EAF7822B6F5F7F4FCC
:103610006830710509F0C0CFDF91CF911F910895F7
:103620008091B803982F990F990F990F982720919F
:103630001704822F8695869589279295969597707F
:1036400089278093B8032F5F2093170408958093F0
:10365000B803089580913F07811117C0F89486E060
:1036600080937C0083E880937A0080917A00806464
:1036700080937A0080917A0086FDFCCF20917800BB
:10368000309179007894C90108952FEF3FEFFBCF77
:103690002F923F924F925F926F927F928F929F9262
:1036A000AF92BF92CF92DF92EF92FF920F931F9350
:1036B000CF93DF9300D000D000D0CDB7DEB75C0150
:1036C000FC010280F381E02DFE83ED83E43823E0EA
:1036D000F2070CF0D8C08091190790911A078E1745
:1036E0009F0708F4B4C100911B0710911C070E1727
:1036F0001F0708F440C200911D0710911E070E1706
:103700001F0708F441C200911F07109120070E17F0
:103710001F0708F442C200912107109122070E17DB
:103720001F0708F443C200912307109124070E17C6
:103730001F0708F496C100912507109126070E1760
:103740001F0708F43CC200912707109128070E17A5
:103750001F0708F43DC20091290710912A070E1790
:103760001F0708F43EC200912B0710912C070E177B
:103770001F0708F43FC200912D0710912E070E1766
:103780001F0708F440C200912F07109130070E1751
:103790001F0708F446C200913107109132070E1737
:1037A0001F0708F447C200913307109134070E1722
:1037B0001F0708F448C219821A8280ED8B8390E4B7
:1037C0009C835CE0E52EF12CF701EE0FFF1FE75E16
:1037D000F84F80819181B801681B790B80E090E0FF
:1037E0000E94A8269B01AC010E94BB233B014C0117
:1037F000ED81FE81BF01882777FD8095982F0E947B
:10380000FD256B017C01B80180E090E00E94A826B4
:103810001B012C0179816A819B818C81272F362F96
:10382000492F582F662D772D882D992D0E9417240A
:103830009B01AC01C201B1010E94E7239B01AC01D5
:10384000C701B6010E94E72320E030E040E251E4E6
:103850000E9417240E9459268B01662D772D882DF2
:10386000992D0E945926AB01BC01C801BA010E94E2
:10387000E128882777FD8095982F0E94FD250E94DA
:103880003222062FE5C00FEFF501808091808091F4
:103890004007909141078815990508F46EC0E090A3
:1038A0004207F0904307E814F90408F468C1E09077
:1038B0004407F0904507E814F90408F469C1E09062
:1038C0004607F0904707E814F90408F46AC1E0904D
:1038D0004807F0904907E814F90408F46BC1E09038
:1038E0004A07F0904B07E814F90408F4D6C0E090BA
:1038F0004C07F0904D07E814F90408F464C1E09017
:103900004E07F0904F07E814F90408F465C1E09001
:103910005007F0905107E814F90408F466C1E090EC
:103920005207F0905307E814F90408F467C1E090D7
:103930005407F0905507E814F90408F468C1E090C2
:103940005607F0905707E814F90408F465C1E090B1
:103950005807F0905907E814F90408F466C1E0909C
:103960005A07F0905B07E814F90408F467C11AE5F8
:103970000F3F31F4812F8F5D51C010E00F3FD1F325
:103980002D813E81B901882777FD8095982F0E946F
:10399000FD256B017C01602F70E080E090E00E94CB
:1039A000A8264B015C01A701960160E070E081E66A
:1039B00094E40E94E7239B01AC01C501B4010E947D
:1039C00017244B015C01612F70E080E090E00E94C1
:1039D000A8262B013C0120E030E04FE254E4C7016F
:1039E000B6010E94E7239B01AC01C301B2010E9412
:1039F00017249B01AC01C501B4010E94BB2320E048
:103A000030E048E453E40E94FC2420E030E044E04D
:103A100052E40E94BB230E943222862F26960FB6C4
:103A2000F894DEBF0FBECDBFDF91CF911F910F91F4
:103A3000FF90EF90DF90CF90BF90AF909F908F90CE
:103A40007F906F905F904F903F902F90089500E08F
:103A50002D813E812D3B32400CF016CF802F8F5DA3
:103A6000DDCF65E085E090E07C0131E0E31AF1080C
:103A700070E080E090E00E94A82620E030E040E086
:103A80005FE30E94172420E030E0A9010E94BB23DD
:103A900069837A838B839C8397CE85E0382EE5E01B
:103AA000F0E0EE0FFF1FE25CF84F80819181B701DB
:103AB000681B790B80E090E00E94A8269B01AC0176
:103AC0000E94BB23262EC72ED82E192FB40188277B
:103AD00077FD8095982F0E94FD252B013C01B701B1
:103AE00080E090E00E94A8264B015C01632D70E00D
:103AF00080E090E00E94A82620E030E040E05FE314
:103B00000E94172420E030E0A9010E94BB23222D4F
:103B10003C2D4D2D512F0E9417249B01AC01C50156
:103B2000B4010E94E7239B01AC01C301B2010E94D2
:103B3000E72320E030E040E251E40E9417240E9495
:103B400059267B01622D7C2D8D2D912F0E945926A7
:103B5000AB01BC01C701BA010E94E128882777FDAB
:103B60008095982F0E94FD250E943222162F6F3FCC
:103B700009F004CF73CF61E081E090E075CF33248A
:103B80003394E1E0F0E08DCF62E082E090E06CCF32
:103B900032E0332EE2E0F0E084CF63E083E090E0B7
:103BA00063CF23E0322EE3E0F0E07BCF64E084E0FB
:103BB00090E05ACF94E0392EE4E0F0E072CF66E076
:103BC00086E090E051CF16E0312EE6E0F0E069CFDC
:103BD00067E087E090E048CFB7E03B2EE7E0F0E019
:103BE00060CF68E088E090E03FCFA8E03A2EE8E0C0
:103BF000F0E057CF69E089E090E036CFF9E03F2E62
:103C0000E9E0F0E04ECF6AE08AE090E02DCFEAE014
:103C10003E2EEAE0F0E045CF7BE0372EEBE0F0E02F
:103C200040CF6BE08BE090E01FCF6CE0362EECE0F5
:103C3000F0E037CF6CE08CE090E016CF5DE0352E01
:103C4000EDE0F0E02ECF6DE08DE090E00DCF1F9223
:103C50000F920FB60F9211242F933F934F935F93C0
:103C60006F937F938F939F93AF93BF93EF93FF9344
:103C700020915F073091600780915D0790915E070A
:103C8000280F391F3093600720935F078FEF90E074
:103C900090935E0780935D078FEF87BD80913B0710
:103CA00090913C07A0913D07B0913E070196A11D60
:103CB000B11D80933B0790933C07A0933D07B093C1
:103CC0003E0780913F0781110BC080916E07909154
:103CD0006F078217930720F480911604843089F0CF
:103CE000FF91EF91BF91AF919F918F917F916F91D4
:103CF0005F914F913F912F910F900FBE0F901F90AA
:103D00001895E091B403F091B5030995009741F33C
:103D10000E94AF21811109C00E94AC29992790937C
:103D20005E0780935D0787BDDBCFE091B203F09122
:103D3000B30309951092600710925F07D1CF80FFFF
:103D400011C0559A81FF11C0549A82FF11C03B9A4D
:103D500083FF11C03A9A84FF11C03D9A85FD11C0BE
:103D60003C980895559881FDEFCF549882FDEFCF90
:103D70003B9883FDEFCF3A9884FDEFCF3D9885FFC8
:103D8000EFCF3C9A08951F920F920FB60F92112415
:103D90008F939F931092810010928500109284005F
:103DA00081E08093180780935C0710923F07109280
:103DB0007C0093EA90937A0080937B009F918F918F
:103DC0000F900FBE0F901F9018951F920F920FB675
:103DD0000F9211242F933F934F935F936F937F9391
:103DE0008F939F93AF93BF93CF93DF93EF93FF9303
:103DF000209184003091850041E040933F078091FD
:103E000018078823A9F1109285001092840040932E
:103E10008100109270071092180780915C07882328
:103E2000A1F080917A0086FDFCCF8091780090917E
:103E3000790090933A078093390781E080937C0062
:103E400093EA90937A0080937B00FF91EF91DF914A
:103E5000CF91BF91AF919F918F917F916F915F9122
:103E60004F913F912F910F900FBE0F901F9018957B
:103E7000C901875891098437994008F057C02658DE
:103E80003109A4EFB0E00E94D528883008F485C03D
:103E90004093180780915C0781115CC080913607C0
:103EA000E82FF0E0EE59F84F9091700790838F5F04
:103EB000809336078C3049F610928100109285006D
:103EC0001092840040935C0710923F07C0916C07EA
:103ED000D0916D0782E697E00E94F620C817D907B7
:103EE00009F0B3CF80916B0787FF68C0982F98586F
:103EF000933030F0539823981092B4001092B3008E
:103F0000863809F4BFC008F063C0833809F41BC1C8
:103F100008F010C1803809F098CF80916E008D7F35
:103F200080936E0016BCE0E0F0E7099510928100E6
:103F300010928500109284004093180740935C070C
:103F400010923F0710927C0083EA80937A0040939E
:103F50007B007BCF80917A0086FDFCCF809178003A
:103F600090917900909338078093370710927C00E6
:103F700083EA80937A0081E080937B0090917007C0
:103F80009923B9F01092810010928500109284005C
:103F900080935C0710923F0758CF21E030E001C0CA
:103FA000220F8A95EAF780917007822B8093700721
:103FB0004CCF10925C071092360747CFE091B603C2
:103FC000F091B70367E377E082E697E009953DCF8C
:103FD000883809F4BBC008F4A9C0893809F47BC04B
:103FE0008A3809F032CF80916207823009F4C9C063
:103FF00008F059C081114AC080911604863009F03A
:1040000024CF6091710780EB90E00E94C4296091F9
:10401000720781EB90E00E94C4296091750785E0EA
:1040200090E00E94C4296091610789E090E00E94BD
:10403000C429609173078CE090E00E94C4296091CC
:10404000740784E190E00E94C42953982398109249
:10405000B4001092B30081E080931604809162074F
:10406000882309F4F2CE80911604863009F4EDCE4F
:10407000539A239A1092B4001092B30086E0809372
:104080001604E3CE85E080931604DFCE813041F73D
:1040900080916307909164079093720780937107F2
:1040A00010921404E0CF833009F484C08430C1F648
:1040B0008091140490916807833009F470C0809156
:1040C00067071092150423E020931404809373076C
:1040D00090937407C8CF80911604863099F0539A54
:1040E000239A1092B4001092B300559854983B98BC
:1040F0003A983D983C98109214041092150486E06A
:104100008093160481E090E00090620702C0880F5F
:10411000991F0A94E2F72091710730917207822368
:104120009323892B51F5109214048FCE82E0809353
:1041300016048BCE8438F1F0853809F086CE81E004
:104140008093160482CEE0E0F0E009958091160499
:10415000833009F47ACE80911604843009F475CE48
:10416000539A239A1092B4001092B30083E0809384
:1041700016046BCE1092160468CE81E0809314046E
:1041800064CE80911404813019F1809165071092FA
:10419000150491E0909314048093750764CF809187
:1041A000740798138CCF809167072091730782134F
:1041B00088CF59CF80911404823089F080916607AE
:1041C0001092150492E090931404809361074BCFF2
:1041D00080916507909175078913D9CF44CF80915D
:1041E0006607909161078913EBCF3DCFFC01808179
:1041F0002FEF3FEF2827022E2295207F2025032E28
:10420000322F22952F700226269532272327220F40
:10421000220F220F202581812827022E2295207F20
:104220002025032E322F22952F7002262695322725
:104230002327220F220F220F202582812827022EDA
:104240002295207F2025032E322F22952F700226C3
:10425000269532272327220F220F220F2025838124
:104260002827022E2295207F2025032E322F2295EB
:104270002F700226269532272327220F220F220F86
:10428000202584812827022E2295207F2025032E99
:10429000322F22952F700226269532272327220FB0
:1042A000220F220F202585812827022E2295207F8C
:1042B0002025032E322F22952F7002262695322795
:1042C0002327220F220F220F202586812827022E46
:1042D0002295207F2025032E322F22952F70022633
:1042E000269532272327220F220F220F2025878190
:1042F0002827022E2295207F2025032E322F22955B
:104300002F700226269532272327220F220F220FF5
:10431000202580852827022E2295207F2025032E08
:10432000322F22952F700226269532272327220F1F
:10433000220F220F202581852827022E2295207FFB
:104340002025032E322F22952F7002262695322704
:104350002327220F220F220F2025C90108950FB60F
:10436000F894A4B1209135072A2B24B921E030918B
:104370003507203029F0000025B1232B25B904C0D2
:1043800000000000000000C00000000000003095A8
:1043900025B1232325B92EEA2A95F1F72BEE30B764
:1043A00035FF0AC0A4B930913507309525B12323D4
:1043B00025B90FBE80E0089500002A9581F721E01D
:1043C00030913507203029F0000025B1232B25B985
:1043D00004C000000000000000C000000000000059
:1043E000309525B1232325B9000024E52A95F1F75E
:1043F000FC018CE0619170E0660F771F6160726074
:104400009AE041E050E09A0126233723232B309194
:104410003507203029F0000025B1232B25B904C031
:1044200000000000000000C0000000000000309507
:1044300025B1232325B9000021E52A95F1F7440F82
:10444000551F9A9501F78A95A9F620B7206120BFDC
:10445000A4B930913507309525B1232325B90FBE76
:1044600081E00895CF92DF92EF92FF920F931F9316
:104470006B017C0120E030E040E05FE40E949F257A
:1044800087FD0EC020E030E040E05FE4C701B601E8
:104490000E94E7230E9459268B019C01305806C0D8
:1044A000C701B6010E9459268B019C01B801C901C0
:1044B0001F910F91FF90EF90DF90CF900895A4E0AF
:1044C000B0E0E5E6F2E20C940B297C016A01FC0104
:1044D0008081823008F44AC1FB019081923008F457
:1044E00042C1843079F4943009F040C1F7019181E0
:1044F000FB018181981709F439C1ADEBEA2EA3E0E5
:10450000FA2E34C1943009F42EC1923091F48230E5
:1045100009F02CC188E0F701DA0101900D928A952B
:10452000E1F7FB018181F70191818923FA01818300
:104530001CC1823009F417C1F70182819381FB010C
:10454000A281B381F7010481158126813781FB01A6
:1045500084809580A680B780FC01EA1BFB0BAF012D
:10456000F7FF04C0442755274E1B5F0B403251050F
:104570000CF074C01E161F06B4F524013501042E7C
:1045800004C076946794579447940A94D2F749826A
:104590005A826B827C82412C512C3201439404C09C
:1045A000440C551C661C771C4A95D2F741E0441A0E
:1045B000510861087108482059206A207B20812C0D
:1045C000912C5401839445284628472819F4812CBE
:1045D000912C540149805A806B807C8084289528D6
:1045E000A628B72846C0EF2B09F443C0840F951FB7
:1045F00028013901042E04C0769467945794479497
:104600000A94D2F749825A826B827C82412C512CC7
:104610003201439404C0440C551C661C771C4A9517
:10462000D2F741E0441A5108610871084022512232
:104630006222732201E010E020E030E045284628A5
:10464000472819F400E010E0980149805A806B80F7
:104650007C8004291529262937290BC0A817B907FA
:1046600024F4812C912C540104C0CD0100E010E011
:104670009801F7014181FB015181451709F446C0BA
:10468000442349F024013501401A510A620A730A91
:104690009301820104C0081919092A093B0937FD51
:1046A00005C0F6011182938382830CC041E0F601BC
:1046B00041839383828330952095109501951F4FF8
:1046C0002F4F3F4F04831583268337830EC0880FF7
:1046D000991FAA1FBB1FF60184839583A683B78306
:1046E00082819381019793838283F60184819581EE
:1046F000A681B781AC01BD01415051096109710921
:104700004F3F5F4F6F4F7F4310F30CC0F601418363
:1047100093838283080D191D2A1D3B1D0483158375
:104720002683378383E0F601808344815581668147
:10473000778177FF1AC0DB01CA0181709927AA2708
:10474000BB277695679557954795842B952BA62B78
:10475000B72B84839583A683B78382819381019647
:104760009383828302C07B0101C07601C701249636
:10477000E0E10C942729A0E2B0E0E1ECF3E20C9434
:1047800019296D8F7E8F8F8F98A3298F3A8F4B8F2A
:104790005C8FBE016F5E7F4FCE014D960E94E82771
:1047A000BE01675F7F4FCE0149960E94E827AE01A8
:1047B0004F5F5F4FBE01675F7F4FCE0141960E9402
:1047C0005F220E941E27A096E2E00C943529A0E209
:1047D000B0E0EDEEF3E20C9419296D8F7E8F8F8F90
:1047E00098A3298F3A8F4B8F5C8FBE016F5E7F4FEE
:1047F000CE014D960E94E827BE01675F7F4FCE0134
:1048000049960E94E8278A8591E089278A87AE0128
:104810004F5F5F4FBE01675F7F4FCE0141960E94A1
:104820005F220E941E27A096E2E00C943529A0E2A8
:10483000B0E0EDE1F4E20C940B296D8F7E8F8F8F49
:1048400098A3298F3A8F4B8F5C8FBE016F5E7F4F8D
:10485000CE014D960E94E827BE01675F7F4FCE01D3
:1048600049960E94E8279989923008F412C08985F8
:10487000823008F41AC0943021F4823009F4B4C0B4
:1048800008C0843021F4923009F4AEC00EC09230DA
:1048900051F481E02A899A85291301C080E08A8B2E
:1048A000CE014196A3C0823051F481E02A899A85D5
:1048B000291301C080E08A87CE01099697C08D88B0
:1048C0009E88AF88B88C0D851E852F853889E0E2DB
:1048D000F0E080E090E0DC01C12CD12C760140E0DA
:1048E00050E0BA0180FE18C0400F511F621F731FB5
:1048F0008C0D9D1DAE1DBF1D412C512C32014394CA
:10490000401751076207730718F0412C512C3201F0
:10491000840D951DA61DB71DCC0CDD1CEE1CFF1CC7
:1049200037FF02C06894C0F8000F111F221F331F09
:10493000B694A794979487943197A1F62B893C89D4
:10494000EB85FC852E0F3F1F2E5F3F4F3C832B8353
:1049500021E0EA893A85E31301C020E02A83EB8154
:10496000FC810CC080FF05C07695679557954795EB
:104970007068B695A795979587953196B7FDF2CF54
:104980009F010CC0880F991FAA1FBB1F77FD816074
:10499000440F551F661F771F215031090097A1054D
:1049A000E0E4BE0778F32B833C838C019D010F77F5
:1049B000112722273327003411052105310559F429
:1049C00087FD09C0452B462B472B29F0805C9F4F64
:1049D000AF4FBF4F80788D839E83AF83B88783E0CE
:1049E0008983CE01019602C08DEB93E00E941E27C1
:1049F000A096E0E10C942729A8E1B0E0E2E0F5E21E
:104A00000C9413296D8B7E8B8F8B988F298B3A8B0F
:104A10004B8B5C8BBE01675F7F4FCE0145960E943A
:104A2000E827BE016F5F7F4FCE0141960E94E827C5
:104A30009985923008F475C08981823008F474C079
:104A40002A853A8123272A87943011F0923019F46D
:104A5000981367C06CC0843039F41D861E861F868B
:104A6000188A1C861B8604C0823029F484E089875A
:104A7000CE0109965EC08B859C852B813C81821B73
:104A8000930B9C878B874D855E856F857889CD805C
:104A9000DE80EF80F8844C155D056E057F0538F4E7
:104AA000440F551F661F771F01979C878B87EFE187
:104AB000F0E000E010E020E030E480E090E0DC0195
:104AC0004C155D056E057F0540F0802B912BA22BC8
:104AD000B32B4C195D096E097F09369527951795FB
:104AE0000795440F551F661F771F319749F78C01B3
:104AF0009D010F7711272227332700341105210547
:104B0000310559F487FD09C0452B462B472B29F069
:104B1000805C9F4FAF4FBF4F80788D879E87AF8758
:104B2000B88BCE01099605C0CE01019602C08DEB6F
:104B300093E00E941E276896E8E00C942F29A8E1D4
:104B4000B0E0E5EAF5E20C9419296D8B7E8B8F8B32
:104B5000988F298B3A8B4B8B5C8BBE01675F7F4FA5
:104B6000CE0145960E94E827BE016F5F7F4FCE01C0
:104B700041960E94E8278985823058F089818230E9
:104B800040F0BE016F5F7F4FCE0109960E9457280B
:104B900001C08FEF6896E2E00C943529A8E1B0E0FF
:104BA000E4EDF5E20C9419296D8B7E8B8F8B988F39
:104BB000298B3A8B4B8B5C8BBE01675F7F4FCE019D
:104BC00045960E94E827BE016F5F7F4FCE01419658
:104BD0000E94E8278985823058F08981823040F030
:104BE000BE016F5F7F4FCE0109960E94572801C01A
:104BF00081E06896E2E00C943529A8E0B0E0E3E0BB
:104C0000F6E20C94172923E029838B019C010027ED
:104C100037FD0395112722273327402F0A8361157B
:104C200071058105910519F482E0898335C02EE173
:104C300030E03C832B83442371F0611571058105BD
:104C400020E8920771F1002711279801061B170B26
:104C5000280B390B02C08B019C01C901B8010E94CD
:104C600040290197181619062CF00D831E832F83F7
:104C7000388712C0082E04C0000F111F221F331FD7
:104C80000A94D2F70D831E832F8338872EE130E0FC
:104C9000281B390B3C832B83CE0101960E941E27D3
:104CA00004C060E070E080E09FEC2896E4E00C94A3
:104CB0003329ACE0B0E0EFE5F6E20C941729698700
:104CC0007A878B879C87BE016F5F7F4FCE010996E5
:104CD0000E94E8278981823091F1823080F184300E
:104CE00041F48A81882331F100E010E020E030E8CF
:104CF00029C02B813C8137FD22C02F3131058CF733
:104D00008EE190E0821B930B0D811E812F813885EF
:104D100004C036952795179507958A95D2F78A810D
:104D2000882381F030952095109501951F4F2F4FC6
:104D30003F4F08C00FEF1FEF2FEF3FE703C000E02A
:104D400010E09801B801C9012C96E4E00C943329D5
:104D5000A8E0B0E0EEEAF6E20C9413298B019C0186
:104D60001A82611571058105910519F482E0898324
:104D70005DC083E089834EE150E05C834B83C901D1
:104D8000B8010E944029019797FF39C0EE27FF27FD
:104D9000E81BF90B41E050E060E070E00E2E04C02B
:104DA000440F551F661F771F0A94D2F741505109CF
:104DB000610971094023512362237323C12CD12C33
:104DC0007601C394452B462B472B19F4C12CD12CCB
:104DD000760104C03695279517950795EA95D2F781
:104DE0000C291D292E293F290D831E832F833887E7
:104DF0002EE130E0281B390B3C832B8317C0009732
:104E000029F40D831E832F83388710C0082E04C019
:104E1000000F111F221F331F0A94D2F70D831E8328
:104E20002F833887481B590B5C834B83CE01019637
:104E30000E941E272896E8E00C942F290F931F93B9
:104E4000CF93DF93DC0114964D915D916D917C9130
:104E500017971196EC9111978C91823020F4606134
:104E60008FEF90E0A6C0843009F49EC0823009F430
:104E700095C0411551056105710509F492C012965E
:104E80002D913C91139722388FEF38070CF058C0C2
:104E9000C2E8DFEFC21BD30BCA31D1056CF58A0122
:104EA0009B010C2E04C036952795179507950A94FB
:104EB000D2F781E090E0A0E0B0E00C2E04C0880FB3
:104EC000991FAA1FBB1F0A94D2F70197A109B10924
:104ED00084239523A623B72341E050E060E070E0EF
:104EE000892B8A2B8B2B19F440E050E0BA01402B20
:104EF000512B622B732B03C040E050E0BA01DB0161
:104F0000CA018F779927AA27BB2780349105A1056D
:104F1000B10539F447FF09C0405C5F4F6F4F7F4FC9
:104F200004C0415C5F4F6F4F7F4F81E090E04115BF
:104F30005105610520E4720748F580E090E026C045
:104F4000203831058CF5DB01CA018F779927AA2714
:104F5000BB2780349105A105B10539F447FF09C08D
:104F6000405C5F4F6F4F7F4F04C0415C5F4F6F4F9E
:104F70007F4F77FD04C0C90181589F4F07C07695C8
:104F8000679557954795C90180589F4F97E076954B
:104F90006795579547959A95D1F70BC080E090E0BB
:104FA00005C080E090E005C08FEF90E040E050E069
:104FB000BA01982F9695E0FB97F9362F80FB37F9C9
:104FC000642F752F832FDF91CF911F910F9108953B
:104FD000CF92DF92EF92DC01FB01CC901196DC9036
:104FE000119712968C9112973FE7E32EE8226E2DCF
:104FF000A60170E0982F991F9927991F13962C915D
:10500000822F880F892B90E027FB222720F921830C
:10501000009729F5411551056105710511F482E0EC
:1050200027C082E89FEF9383828327E0440F551FB8
:10503000661F771F2A95D1F783E0808309C0440F4C
:10504000551F661F771F8281938101979383828307
:1050500041155105610580E4780788F320C08F3F32
:10506000910579F4411551056105710519F484E044
:10507000808319C0E4FE03C081E0808310C01082E9
:105080000EC08F5791099383828383E0808387E0EA
:10509000440F551F661F771F8A95D1F770644483AC
:1050A000558366837783EF90DF90CF900895CF93F9
:1050B000FC01DB019081923008F452C08C91823067
:1050C00008F44EC0943071F4843039F411962C9168
:1050D00030E08181281B310948C08181882309F48F
:1050E0003FC03BC0843029F411968C91811138C0A7
:1050F00034C0923019F48230B9F735C0823069F388
:10510000C18111968C911197C8131DC022813381E2
:1051100012968D919C911397821793070CF413C0EC
:10512000281739070CF417C04481558166817781AF
:1051300014968D919D910D90BC91A02D841795078B
:10514000A607B70718F4C11108C00AC048175907C5
:105150006A077B0740F4C11103C02FEF3FEF05C082
:1051600021E030E002C020E030E0C901CF91089595
:105170000E94211686E690E09093B7038093B603D1
:105180008CE590E09093B5038093B4038FE590E0B5
:105190009093B3038093B20365EB71E080EA90E0F3
:1051A0000E949F1880E090E00895A29FB001B39FF5
:1051B000C001A39F01D0B29F700D811D1124911DCC
:1051C000089597FB072E16F4009407D077FD09D0B9
:1051D0000E94F52807FC05D03EF4909581959F4FDD
:1051E0000895709561957F4F0895AA1BBB1B51E1EF
:1051F00007C0AA1FBB1FA617B70710F0A61BB70B47
:10520000881F991F5A95A9F780959095BC01CD01EB
:1052100008952F923F924F925F926F927F928F925A
:105220009F92AF92BF92CF92DF92EF92FF920F9335
:105230001F93CF93DF93CDB7DEB7CA1BDB0B0FB63F
:10524000F894DEBF0FBECDBF09942A8839884888FC
:105250005F846E847D848C849B84AA84B984C88492
:10526000DF80EE80FD800C811B81AA81B981CE0F89
:10527000D11D0FB6F894DEBF0FBECDBFED0108956E
:105280000E94492984FF0895CB010E944929805F2B
:105290000895AA27992329F4A85F982B11F480E197
:1052A0000895903118F4AD5F9295A395990FE8F7A2
:1052B0008A2F992708958F929F92AF92BF92CF9293
:1052C000DF92EF92FF92CF93DF93EC0168817981B7
:1052D0008A819B81611571058105910521F464E244
:1052E00079ED8BE597E02DE133EF41E050E00E944E
:1052F000E52949015A019B01AC01A7EAB1E40E94EA
:10530000D2296B017C01ACEEB4EFA50194010E949F
:10531000E029C60ED71EE81EF91EF7FE06C081E082
:10532000C81AD108E10880E8F80AC882D982EA825E
:10533000FB82E894D7F8EE24FF24C601DF91CF91D9
:10534000FF90EF90DF90CF90BF90AF909F908F90A5
:1053500008950E945B29089589EB93E00E945B29E0
:105360000895A0E0B0E08093B9039093BA03A093AE
:10537000BB03B093BC030895F999FECF92BD81BDE4
:10538000F89A992780B50895262FF999FECF1FBA6C
:1053900092BD81BD20BD0FB6F894FA9AF99A0FBE5E
:1053A000019608950E94D528A59F900DB49F900D59
:1053B000A49F800D911D11240895B7FF0C94D2294C
:1053C0000E94D229821B930B0895052E97FB16F499
:1053D000009407D057FD0DD00E94012A07FC09D088
:1053E0007EF490958095709561957F4F8F4F9F4F7C
:1053F000089550954095309521953F4F4F4F5F4F01
:105400000895A1E21A2EAA1BBB1BFD010DC0AA1F05
:10541000BB1FEE1FFF1FA217B307E407F50720F01D
:10542000A21BB30BE40BF50B661F771F881F991F98
:105430001A9469F760957095809590959B01AC01E1
:0A544000BD01CF010895F894FFCFDD
:10544A00030100FF00FF000304002A002A002A00CB
:10545A002A0001000A0001000900020007000100F9
:10546A000800030008000400070005000800050002
:10547A00090005000A0007000900070008000900E2
:10548A0008000900090008000A00010002000100E2
:10549A0003000100040001000100020005000300EE
:1054AA0004000200030003000200030001000500DB
:1054BA0005000500040005000300050001000500C1
:1054CA0002000600010008000500080004000800A8
:1054DA0003000800020008000100090005000A0094
:1054EA0004000A0003000A00020009000100080083
:1054FA000700030005000100050001000A00010081
:10550A00080001000700010009000100060002006E
:10551A00080003000A000300080003000900030052
:10552A000700030006000200050002000400020052
:10553A00030002000100030001000200020005004E
:10554A00050005000400050002000500030005002F
:10555A00010006000100080002000800030008001C
:10556A000400090005000A0004000A0003000A00FA
:10557A0002000900010006000A00060009000600F0
:10558A0007000600060006000800070006000800DB
:10559A000600080008000700080007000A000800C3
:1055AA000A0001000A0001000900020007000100C8
:1055BA0008000300080004000700050008000500B1
:1055CA00090005000A000700090007000800090091
:1055DA0008000900090008000A0001000200010091
:1055EA00030001000400010001000200050003009D
:1055FA00040002000300030002000300010005008A
:10560A00050005000400050003000500010005006F
:10561A000200060001000800050008000400080056
:10562A0003000800020008000100090005000A0042
:10563A0004000A0003000A00020009000100080031
:10564A000700030005000100050001000A0001002F
:10565A00080001000700010009000100060002001D
:10566A00080003000A000300080003000900030001
:10567A000700030006000200050002000400020001
:10568A0003000200010003000100020002000500FD
:10569A0005000500040005000200050003000500DE
:1056AA0001000600010008000200080003000800CB
:1056BA000400090005000A0004000A0003000A00A9
:1056CA0002000900010006000A000600090006009F
:1056DA00070006000600060008000700060008008A
:1056EA000600080008000700080007000A00080072
:1056FA000A0020161D161C16AA0100000000000050
:06570A0000000000000099
:00000001FF
